:100000000C9486000C94A7000C94A7000C94A700F5
:100010000C94A7000C94A7000C94A7000C94A700C4
:100020000C94A7000C94A7000C94A7000C94A700B4
:100030000C94A7000C94A7000C94A7000C94A700A4
:100040000C94A7000C94A7000C94A7000C94A70094
:100050000C94A7000C9400130C94A7000C94A70018
:100060000C94A7000C94A9000C94E2000C94A70037
:100070000C94A7000C94A7000C94A7000C94A70064
:100080000C94A7000C94A7000C94A7000C94A70054
:100090000C94A7000C94A7000C94A7000C94A70044
:1000A0000C94A7000C94A7000C94A7000C94A70034
:1000B0000C94A7000C94A7000C94A7000C94A70024
:1000C0000C94A7000C94A7000C94A7000C94A70014
:1000D0000C94A7000C94A7000C94A7000C94A70004
:1000E0000C94A70007634236B79BD8A71A39685605
:1000F00018AEBAAB558C1D3CB7CC5763BD6DEDFD4A
:10010000753EF6177231BF000000803F11241FBEFC
:10011000CFEFD1E2DEBFCDBF00E00CBF12E0A0E028
:10012000B2E0E2EFFFE300E00BBF02C007900D92E8
:10013000A637B107D9F72CE0A6E7B2E001C01D92BF
:10014000A33FB207E1F70E94D4160C94F71F0C945A
:1001500000001F920F920FB60F9211240BB60F9250
:100160002F933F934F935F938F939F93EF93FF93BF
:100170002091C0003091C60028718091780290E0F3
:1001800001968F7799274091770250E08417950761
:1001900039F080937802FC01E558FD4F308301C0AF
:1001A00022E020937602FF91EF919F918F915F91D2
:1001B0004F913F912F910F900BBE0F900FBE0F905C
:1001C0001F9018951F920F920FB60F9211240BB625
:1001D0000F928F939F93EF93FF9390917A02809168
:1001E0007902981779F08091790290E001968F77E3
:1001F000992780937902FC01E550FD4F808180931F
:10020000C60005C08091C1008F7D8093C100FF9121
:10021000EF919F918F910F900BBE0F900FBE0F909B
:100220001F901895F89410927A0210927902109209
:10023000780210927702789497FF04C022E020930E
:10024000C0009F779093C5008093C40088E9809395
:10025000C10086E08093C2000895F89490917802DE
:1002600080917702981304C0789480E091E008951B
:1002700078948091770290E001968F779927809308
:100280007702FC01E558FD4F20818091760290E0D5
:10029000982F8827820F911D0895F89490917802E5
:1002A00080917702981304C0789480E091E00895DB
:1002B0007894E0917702F0E03196EF77FF27E558E8
:1002C000FD4F20818091760290E0982F8827820F41
:1002D000911D089520917A0230E02F5F3F4F2F77D4
:1002E00033274091790250E024173507D1F3F90103
:1002F000E550FD4F808320937A028091C100806297
:100300008093C1000895CF93DF93EC0189918823F6
:1003100019F00E946A01FACFDF91CF910895CF932F
:10032000DF93FC018491EF012196882321F00E9444
:100330006A01FE01F7CFDF91CF910895F894809183
:10034000780220917702789490E080589F4F821B2A
:1003500091098F7799270895F89480917702809377
:100360007802789408950F931F930097C9F0AC0119
:100370004150510960E070E080E090E08A019B010B
:100380000027012B022B032B31F0769567955795AB
:1003900047950196F3CF982F8827842B952B02C081
:1003A00080E090E01F910F910895CF93DF93D62FB7
:1003B000C42F8C569C4FFC0180810E944A138D2FC4
:1003C0000E949D138C2F0E949D13DF91CF910C945E
:1003D00095131F93CF93DF93162FEA018C569C4FF2
:1003E000FC0180810E944A13812F0E949D138D2F52
:1003F0000E949D138C2F0E949D13DF91CF911F911E
:100400000C949513FF920F931F93CF93DF93F62EC7
:10041000E901142F052F8C569C4FFC0180810E940E
:100420004A138F2D0E949D13802F0E949D13812FB0
:100430000E949D138D2F0E949D138C2F0E949D134F
:10044000DF91CF911F910F91FF900C9495131F9303
:10045000CF93DF93162FEC01CC56DC4F88810E949E
:100460004A13812F0E949D13888181600E949313FB
:100470000E94B813C82F0E9495138C2FDF91CF9143
:100480001F910895CF93DF93D62F8C569C4FFC017C
:10049000C0818C2F0E944A138D2F0E949D138C2F98
:1004A00081600E9493130E94AE13C82FD0E0DC2F0E
:1004B000CC270E94B813C82B0E949513CE01DF9160
:1004C000CF910895CF92DF92EF92FF92CF93F62EC5
:1004D0008C569C4FFC01C0818C2F0E944A138F2D9B
:1004E0000E949D138C2F81600E9493130E94AE1373
:1004F000C82ED12CE12CF12CFC2CEE24DD24CC24B4
:100500000E94AE13E82A0E94AE13C82F0E94B813AF
:10051000C82ADC2A0E949513C701B601CF91FF902B
:10052000EF90DF90CF900895FF920F931F93CF939A
:10053000DF93162FF42ED52FC22F8C569C4FFC0123
:1005400080810E944A13812F0E949D130F2D1D2F21
:10055000CC2339F0F80181918F010E949D13C15085
:10056000F7CFDF91CF911F910F91FF900C949513CE
:10057000FF920F931F93CF93DF93D62FF42E052F67
:10058000122F8C569C4FFC01C0818C2F0E944A1365
:100590008D2F0E949D138C2F81600E949313CF2D6D
:1005A000D02F112359F0123018F00E94AE1302C060
:1005B0000E94B813888311502196F3CFDF91CF9119
:1005C0001F910F91FF900C9495131F93CF93DF937E
:1005D000EC01162F8091000280939703462F4695D9
:1005E0006AE883E090E00E94D501CC56DC4F188386
:1005F000DF91CF911F9108958C569C4FFC01808113
:100600000895CF92DF92EF92FF92CF93DF93EC01A8
:100610006A017B0120E030E0A901C701B6010E9418
:10062000301987FD1BC028EB3EEF4FEF53E4C701A5
:10063000B6010E94F01A18168CF020E030E040E07D
:1006400053E4C701B6010E946B1B0E94E819AB017D
:1006500064E4CE010E94E90181E001C080E0DF9105
:10066000CF91FF90EF90DF90CF90089564E40E94C7
:100670004202BC0180E090E00E94171A20E030E0C6
:1006800040E05CE30E946B1B08956115710511F455
:1006900060E504C06130710531F460E70E94270213
:1006A0008F5F880F08958FEF0895CF92DF92EF92BA
:1006B000FF92CF93DF93EC016A017B0141E060E898
:1006C0000E94D50141E06FEFCE010E94D50140E0CC
:1006D00060E0CE010E94D50140918F0361E9CE0117
:1006E0000E94D50141E060E0CE010E94D50140E0CA
:1006F0006FEFCE010E94D50140E060E8CE010E947C
:10070000D501C114D104E104F104A9F068EFCE01D0
:100710000E944202009739F0DC01A70196010E9475
:10072000A1186B017C01A701960164E0CE010E9433
:10073000020244E001C042E060E0CE01DF91CF91CF
:10074000FF90EF90DF90CF900C94D501CF93DF9383
:10075000EC0141E060E00E94D50141E06FEFCE0185
:100760000E94D50140E060E0CE010E94D50140E04A
:1007700061E9CE010E94D50141E060E0CE010E9416
:10078000D50140E06FEFCE01DF91CF910C94D50100
:10079000CF92DF92EF92FF920F931F93CF93DF934D
:1007A000CDB7DEB72C970FB6F894DEBF0FBECDBF26
:1007B0006C017B010E94F41270938E0360938D0391
:1007C00063E1C6010E9427028770D9F480917C03FF
:1007D00090917D03892BA1F30E94F41220918D0347
:1007E00030918E03621B730B80917C0390917D038B
:1007F0008617970728F781E080937B038FEF9FEFA1
:1008000039C0E114F10431F46EE1C6010E944202E4
:100810008C012AC02CE0AE014F5F5F4F64E1C6013E
:100820000E94B8028981869586958695F701808712
:100830008B819C81982789279827978386838F812E
:1008400098859827892798279383828389859A8515
:10085000982789279827958384830B851C851027E3
:10086000012710271183008341E06BE0C6010E943D
:10087000D501C8012C960FB6F894DEBF0FBECDBFD0
:10088000DF91CF911F910F91FF90EF90DF90CF906C
:1008900008950F931F93CF93DF93EC018B0141E0F9
:1008A00060E80E94D50141E06FEFCE010E94D501C2
:1008B00040E060E0CE010E94D50140918F0361E9E4
:1008C000CE010E94D50141E060E0CE010E94D50139
:1008D00040E06FEFCE010E94D50140E060E8CE011C
:1008E0000E94D50141E060E0CE010E94D5010E9446
:1008F000F41270938E0360938D0360E0CE010E942A
:10090000270280FF1FC080917C0390917D03892B7B
:10091000A1F30E94F41220918D0330918E03621B8B
:10092000730B80917C0390917D038617970728F7BE
:1009300081E080937B038FEF9FEFDF91CF911F9139
:100940000F910895B801CE01DF91CF911F910F91C2
:100950000C94C80380917B0310927B0308959093BD
:100960007D0380937C03089580917C0390917D03A7
:100970000895CF92DF92EF92FF921F93CF93DF9370
:10098000EC016B017A0141E060E80E94D50141E091
:100990006FEFCE010E94D50140E060E0CE010E94E1
:1009A000D50146E06FEFCE010E94D50163E8CE018C
:1009B0000E942702482F446063E8CE010E94D501BF
:1009C00047E06FEFCE010E94D50141E061E8CE0122
:1009D0000E94D50141E060E8CE010E94D5014BE6BE
:1009E00064E9CE010E94D50140E063E8CE010E9497
:1009F000D5010E94F41270938E0360938D0363E817
:100A0000CE010E942702182F811116C080917C030D
:100A100090917D03892B99F30E94F41220918D030C
:100A200030918E03621B730B80917C0390917D0348
:100A30008617970720F73BC041E063E8CE010E948C
:100A4000D50162E9CE010E942702982F9F77F60117
:100A50009083881F8827881FF701808340E061E822
:100A6000CE010E94D50146E06FEFCE010E94D50174
:100A700063E8CE010E942702482F4B7F63E8CE0136
:100A80000E94D50141E06FEFCE010E94D50141E007
:100A900060E0CE010E94D50140E06FEFCE010E94E0
:100AA000D50140E060E8CE010E94D50111E0812F20
:100AB000DF91CF911F91FF90EF90DF90CF9008953D
:100AC000CF93DF93EB0161E00E94270284FB99271B
:100AD00090F9988383FB992790F99A8382FB992751
:100AE00090F9998386FB992790F99B83881F882723
:100AF000881F8C83DF91CF9108952F923F924F9260
:100B00005F926F927F928F929F92AF92BF92CF929D
:100B1000DF92EF92FF920F931F93CF93DF9300D05A
:100B200000D0CDB7DEB71C017E836D838A0160E003
:100B300070E00E94450390E0F8019183808366E4B1
:100B4000C1010E942702282F30E02F5F3F4F3A83D8
:100B50002983F80135832483A081B0E020E03FE2BF
:100B60004AE350E00E94A1184B015C01F4EF8F0EA4
:100B7000F1E09F1EA11CB11C98EEC92E93E0D92E66
:100B8000E12CF12CC501B401A70196010E947F1848
:100B9000A981BA810E94AC1869837A838B839C8374
:100BA00020ED422E27E0522E612C712CC501B4019C
:100BB000A30192010E947F1869817A818B819C81B7
:100BC000620F731F841F951FA70196010E947F1853
:100BD000F801228733874487558761E5C1010E9468
:100BE00042029C01332702C0220F331F9A95E2F77D
:100BF0002F5F3F4F3A832983F80137832683A081F3
:100C0000B0E020E03FE24AE350E00E94A1184B012F
:100C10005C01F4EF8F0EF1E09F1EA11CB11CC50119
:100C2000B401A70196010E947F18A981BA810E9490
:100C3000A11869837A838B839C83C501B401A301C6
:100C400092010E947F1869817A818B819C81620F59
:100C5000731F841F951FA70196010E947F18F8013A
:100C600026873787408B518B60E7C1010E9427029E
:100C70008F5F880F90E0F8019383828361E7C10161
:100C80000E9442029C01992702C0880F991F3A9541
:100C9000E2F70196F80191878087ED81FE8123813B
:100CA000222339F0F80126813781821B930B91872B
:100CB0008087F801A281B0E020E03FE24AE350E003
:100CC0000E94A1186B017C01F4EFCF0EF1E0DF1E52
:100CD000E11CF11C88EE882E83E0982EA12CB12C0B
:100CE000C701B601A50194010E947F18F801A085F3
:100CF000B1850E94A1182B013C01C701B60120ED6E
:100D000037E040E050E00E947F18C301B201620F5B
:100D1000731F841F951FA50194010E947F18F8017D
:100D2000228B338B448B558B26960FB6F894DEBFFF
:100D30000FBECDBFDF91CF911F910F91FF90EF902C
:100D4000DF90CF90BF90AF909F908F907F906F90EB
:100D50005F904F903F902F9008952F923F924F9227
:100D60005F926F927F928F929F92AF92BF92DF922B
:100D7000EF92FF920F931F93CF93DF93CDB7DEB720
:100D80006F970FB6F894DEBF0FBECDBF40322EE492
:100D900052076105710508F4B9C04A015B011C01E5
:100DA000BE01695E7F4F0E946005AE014F5F5F4FDD
:100DB000BE01695E7F4FC1010E947D058F89882336
:100DC00049F00B851C852D853E850A5C144F2F4FFD
:100DD0003F4F04C008EE18E020E030E0898D882302
:100DE00069F08B859C85AD85BE858E549D4FAF4F38
:100DF000BF4F880F991FAA1FBB1F0BC0888D882368
:100E000061F08B859C85AD85BE858C569D4FAF4F1F
:100E1000BF4F080F191F2A1F3B1FDA8CDD2061F01E
:100E20008F859889A989BA898C569D4FAF4FBF4F3E
:100E3000080F191F2A1F3B1F8B8D882309F464C0DC
:100E4000780189018AEDE81A8DEFF80A0F4F1F4FDC
:100E50008E149F04A006B10608F458C0AB81B0E020
:100E600020E03FE24AE350E00E94A1182B013C0140
:100E7000A4EF4A0EA1E05A1E611C711CA501940149
:100E80002E193F09400B510BA8EEB3E00E94A118A8
:100E90006C8F7D8F8E8F9F8FC301B20120ED37E065
:100EA00040E050E00E947F188C8D9D8DAE8DBF8DEF
:100EB000820F931FA41FB51F8C8F9D8FAE8FBF8F86
:100EC000C301B20128EE33E040E050E00E947F18F9
:100ED0006C8D7D8D8E8D9F8D0E947F18C901DD20C8
:100EE00021F08F819885820F931F0E94B301AC017E
:100EF00061E7C1010E94E901809290039092910301
:100F0000A0929203B092930381E001C080E06F96BB
:100F10000FB6F894DEBF0FBECDBFDF91CF911F910A
:100F20000F91FF90EF90DF90BF90AF909F908F90C8
:100F30007F906F905F904F903F902F9008950F9308
:100F40001F93CF93DF93CDB7DEB76B970FB6F894AF
:100F5000DEBF0FBECDBF8C01BE01695E7F4F0E9418
:100F60006005AE014F5F5F4FBE01695E7F4FC801F4
:100F70000E947D058F89882359F08B859C85AD85DE
:100F8000BE85BC01CD016C57724F8F4F9F4F04C07F
:100F900066E37BE080E090E0298D222369F00B85F9
:100FA0001C852D853E850E541D4F2F4F3F4F000F42
:100FB000111F221F331F0BC0288D222361F00B85C8
:100FC0001C852D853E850C561D4F2F4F3F4F600FC2
:100FD000711F821F931F2A8D222361F00F851889AC
:100FE00029893A890C561D4F2F4F3F4F600F711FB3
:100FF000821F931F2B8D222361F00B891C892D8961
:101000003E890A5D1D4F2F4F3F4F600F711F821F9A
:10101000931F609390037093910380939203909336
:1010200093036B960FB6F894DEBF0FBECDBFDF9172
:10103000CF911F910F9108951F93CF93DF93EC01F0
:10104000462F416060E00E94D5010E94F412709327
:101050008E0360938D0363E1CE010E942702182F57
:101060001770B1F480917C0390917D03892B99F3E3
:101070000E94F41220918D0330918E03621B730B3A
:1010800080917C0390917D038617970720F70BC012
:1010900041E06BE0CE010E94D50140E060E0CE016E
:1010A0000E94D50111E0812FDF91CF911F9108950A
:1010B0000F931F93CF93DF93CDB7DEB728970FB66B
:1010C000F894DEBF0FBECDBF8C01662349F069E8FE
:1010D0000E942702482F416069E8C8010E94D5019B
:1010E00040E068E8C8010E94D50141E060E8C8011D
:1010F0000E94D50141E06FEFC8010E94D50140E098
:1011000060E0C8010E94D50161E9C8010E94270280
:1011100080938F0341E060E0C8010E94D50140E068
:101120006FEFC8010E94D50140E060E8C8010E944D
:10113000D50160E6C8010E942702482F426160E69F
:10114000C8010E94D50140E250E064E4C8010E9459
:10115000E9014FEF61E0C8010E94D501AE01495F8E
:101160005F4FBE01685F7F4FC8010E94B9048111C3
:1011700002C080E037C226E0AE014F5F5F4F60EBF8
:10118000C8010E94B80241E06FEFC8010E94D5017A
:1011900040E06FE4C8010E94D5014CE26EE4C80152
:1011A0000E94D50140E06FEFC8010E94D50144EBD9
:1011B00066EBC8010E94D5018F81811102C040E019
:1011C00001C04CE0A88580E090E061E070E0282F4D
:1011D000269526952695582F5770E1E0F0E0EC0F04
:1011E000FD1FE20FF11D841710F0A9130AC09B0127
:1011F00001C0220F5A95EAF72095308123232083DE
:1012000009C0208130E002C0359527955A95E2F754
:1012100020FD9F5F8F5F8033D1F626E0AE014F5FE8
:101220005F4F60EBC8010E94940241E06FEFC8017C
:101230000E94D50140E060E0C8010E94D50140E075
:101240006FEFC8010E94D50140E069E0C8010E942B
:10125000D50140E060E1C8010E94D50140E061E1B4
:10126000C8010E94D50141E064E2C8010E94D50195
:101270004FEF65E2C8010E94D50140E065E7C80173
:101280000E94D50141E06FEFC8010E94D5014CE2F8
:101290006EE4C8010E94D50140E068E4C8010E94E4
:1012A000D50140E260E3C8010E94D50140E06FEF44
:1012B000C8010E94D50149E060E3C8010E94D50140
:1012C00040E064E5C8010E94D50144E061E3C80143
:1012D0000E94D50143E062E3C8010E94D50143E8C2
:1012E00060E4C8010E94D50145E266E4C8010E949D
:1012F000D50140E060E6C8010E94D50140E067E208
:10130000C8010E94D50146E060E5C8010E94D501F0
:1013100040E061E5C8010E94D50146E962E5C801E7
:101320000E94D50148E066E5C8010E94D50140E36E
:1013300067E5C8010E94D50140E061E6C8010E944E
:10134000D50140E062E6C8010E94D50140E064E6B4
:10135000C8010E94D50140E065E6C8010E94D501A0
:1013600040EA66E6C8010E94D50141E06FEFC8017E
:101370000E94D50142E362E2C8010E94D50144E126
:1013800067E4C8010E94D5014FEF69E4C8010E94DB
:10139000D50140E06AE4C8010E94D50140E06FEF4A
:1013A000C8010E94D5014AE06AE7C8010E94D50140
:1013B00040E06BE7C8010E94D50141E268E7C8013F
:1013C0000E94D50141E06FEFC8010E94D50144E3BE
:1013D00063E2C8010E94D50140E062E4C8010E94B6
:1013E000D5014FEF64E4C8010E94D50146E265E4EF
:1013F000C8010E94D50145E066E4C8010E94D501FC
:1014000040E460E4C8010E94D50146E06EE0C801F6
:101410000E94D5014AE160E2C8010E94D50140E482
:1014200063E4C8010E94D50140E06FEFC8010E944B
:10143000D50143E064E3C8010E94D50144E465E3BB
:10144000C8010E94D50141E06FEFC8010E94D5019B
:1014500044E061E3C8010E94D50149E06BE4C801A2
:101460000E94D50145E06CE4C8010E94D50144E02A
:101470006DE4C8010E94D50140E06FEFC8010E94F1
:10148000D50140E064E4C8010E94D50140E265E472
:10149000C8010E94D50148E067E4C8010E94D50157
:1014A00048E268E4C8010E94D50140E067E6C8014F
:1014B0000E94D50144E060E7C8010E94D50141E0E7
:1014C00061E7C8010E94D5014EEF62E7C8010E94A2
:1014D000D50140E066E7C8010E94D50140E067E71A
:1014E000C8010E94D50141E06FEFC8010E94D501FB
:1014F00041E06DE0C8010E94D50140E06FEFC801F6
:101500000E94D50141E060E8C8010E94D50148EF82
:1015100061E0C8010E94D50141E06FEFC8010E945F
:10152000D50141E06EE8C8010E94D50141E060E0CC
:10153000C8010E94D50140E06FEFC8010E94D501AB
:1015400040E060E8C8010E94D50144E06AE0C801BB
:101550000E94D50164E8C8010E942702482F4F7EEF
:1015600064E8C8010E94D50141E06BE0C8010E9417
:10157000D501C8010E949F07609390037093910367
:10158000809392039093930348EE61E0C8010E9418
:10159000D501409190035091910360919203709115
:1015A0009303C8010E94AD0641E061E0C8010E94BA
:1015B000D50160E4C8010E941C08882309F4D9CD34
:1015C00042E061E0C8010E94D50160E0C8010E94CC
:1015D0001C08882309F4CDCD48EE61E0C8010E94C3
:1015E000D50181E028960FB6F894DEBF0FBECDBFBF
:1015F000DF91CF911F910F9108958F929F92AF929B
:10160000BF92CF92DF92EF92FF920F931F93CF93EF
:10161000DF93CDB7DEB76B970FB6F894DEBF0FBE82
:10162000CDBF8C016B01F42EE42EE694EA94BE014A
:10163000695E7F4F0E946005AE014F5F5F4FBE0144
:10164000695E7F4FC8010E947D05C114D10409F075
:101650007AC02EE0F21679F02F1528F08CE0F812FF
:101660004AC148E10BC020E1F21639F082E1F812DC
:1016700042C140E503C040E301C040E467E5C80162
:101680000E94D50148E066E5C8010E94D5014E2DB3
:1016900060E5C8010E94D501AF2DB0E020E03FE237
:1016A0004AE350E00E94A1186B017C0124EFC20EB6
:1016B00021E0D21EE11CF11CC701B60128EE33E087
:1016C00040E050E00E947F1849015A01C701B6016D
:1016D00020ED37E040E050E00E947F1869017A0178
:1016E0002F85388949895A89A8EEB3E00E94A1184C
:1016F0006C0D7D1D8E1D9F1DA50194010E947F18FC
:10170000C9010E94B301AC0161E5C8010E94E90171
:101710002B853C854D855E85A8EEB3E00E94A1181F
:101720006C0D7D1D8E1D9F1DA50194010E947F18CB
:101730004FEF213081E0380708F4420F66E4C8011A
:101740000E94D501B8C0CA94CD2809F0D4C08AE05F
:10175000F816B9F18F15F0F028E0F212CCC040E194
:1017600068E4C8010E94D50148E067E4C8010E940E
:10177000D50142E062E3C8010E94D5014CE060E37C
:10178000C8010E94D50141E06FEFC8010E94D50158
:1017900040E342C08CE0F81629F12EE0F212ABC013
:1017A00048E468E4C8010E94D50148E067E4C80144
:1017B0000E94D50143E062E3C8010E94D50147E0E1
:1017C00021C048E268E4C8010E94D50148E067E40E
:1017D000C8010E94D50143E062E3C8010E94D5011F
:1017E00049E010C048E368E4C8010E94D50148E020
:1017F00067E4C8010E94D50143E062E3C8010E948A
:10180000D50148E060E3C8010E94D50141E06FEFD7
:10181000C8010E94D50140E260E3C8010E94D501E1
:1018200040E06FEFC8010E94D5014E2D60E7C8016E
:101830000E94D501AF2DB0E020E03FE24AE350E046
:101840000E94A1186B017C0124EFC20E21E0D21E80
:10185000E11CF11C2B893C894D895E89A8EEB3E01F
:101860000E94A1184B015C01C701B60120ED37E0D1
:1018700040E050E00E947F18820E931EA41EB51E09
:10188000C701B60128EE33E040E050E00E947F1827
:10189000C501B4010E947F18C9016A8D662321F039
:1018A0008F819885820F931F0E94B301AC0161E77D
:1018B000C8010E94E9014091900350919103609109
:1018C000920370919303C8010E94AD0661E0C801C4
:1018D0000E942702F82E42E061E0C8010E94D50173
:1018E00060E0C8010E941C084F2D61E0C8010E9401
:1018F000D50181E001C080E06B960FB6F894DEBFA1
:101900000FBECDBFDF91CF911F910F91FF90EF9050
:10191000DF90CF90BF90AF909F908F900895CF921F
:10192000DF92EF92FF920F931F93CF93DF936C019F
:10193000EB017A018A01061B170BC80101960E9470
:10194000E61BD601AC0FBD1FFC01C81BD90BCF0194
:101950008C0F9D1F8E159F056CF01082CF01801B90
:10196000910BDF91CF911F910F91FF90EF90DF903E
:10197000CF9008958D91882381F38193E8CFE1E0A2
:10198000F1E08081886380836F98E2E0F1E08081FC
:101990008863808308958CB1881F8827881F0895E5
:1019A000E2E0F1E08081877F80830895E2E0F1E06A
:1019B0008081886080830895E2E0F1E080818F7EFD
:1019C00080830895E2E0F1E0808180618083089562
:1019D000E2E0F1E080818F7D80830895E2E0F1E034
:1019E0008081806280830895EAE0F1E080818862EE
:1019F000808384B1806684B9EBE0F1E08081886205
:101A0000808385B1806685B90895CF93DF93F8947C
:101A1000C1E8D0E0188221E231E0D9011C928FEFB9
:101A20008093850010928400109289008093880032
:101A300010928B0080938A0010928D0080938C000E
:101A4000809325011092240110922901809328018E
:101A500010922B0180932A0110922D0180932C016A
:101A6000A0E2B1E08C91886A8C938C918B7A8C93F4
:101A7000E0E8F0E08081886A808380818B7A8083CF
:101A80008C9181608C938C918D7F8C93D9018C91FA
:101A900088608C9380818160808380818D7F80834A
:101AA0008881886088838C9183608C938C918B7FF4
:101AB0008C9388818360888388818B7F88837894E6
:101AC000DF91CF9108956095609328018095809370
:101AD00088000895609560932C01809580938A001A
:101AE00008958FEF81B909988FE39CE90197F1F789
:101AF00000C0000060910A0280E090E00E94E502D0
:101B000080E090E00E94FC02809385088FE39CE9CE
:101B10000197F1F700C000000B986091090281E085
:101B200090E00E94E50281E090E00E94FC02809338
:101B3000B0088FE39CE90197F1F700C000000D9811
:101B40006091080282E090E00E94E5028FE39CE948
:101B50000197F1F700C0000082E090E00E94FC02D3
:101B60008093DF0C0895E4E0F1E080818465808358
:101B7000E5E0F1E080818465808308950E94F40CA3
:101B80000C94050D0E942D01911102C08111089540
:101B90008FEF089560E070E080E090E00E94C8035D
:101BA0009093E50C8093E40C88979093E30C8093DA
:101BB000E20C60E070E081E090E00E94C803909346
:101BC0009B0880939A089093EE0C8093ED0C60E054
:101BD00070E082E090E00E94C8039093AC0880938C
:101BE000AB084E9790938408809383089F938F93BC
:101BF0008091EE0C8F938091ED0C8F938091E30C8C
:101C00008F938091E20C8F9383E192E09F938F9367
:101C10008CEE97E09F938F930E940E1D8DB79EB719
:101C20000A960FB6F8949EBF0FBE8DBF08950E940E
:101C3000CA0D2091E20C3091E30C809183089091C1
:101C40008408821B930B90938303809382030895EF
:101C50004F925F926F927F928F929F92AF92BF92BC
:101C6000CF92DF92EF92FF92CF93DF930E94170EF5
:101C7000EC01BC01990F880B990B0E94191A0E9464
:101C8000AF196B017C01662777276C1B7D0B072E34
:101C9000000C880B990B0E94191A0E94AF194B0176
:101CA0005C019B01AC01C701B6010E94C3182B0166
:101CB0003C01A5019401C701B6010E94C4189B0113
:101CC000AC01C301B2010E9435190E94E119709361
:101CD0008303609382032091800330918103FB0191
:101CE000E21BF30B4091030250910402E49F900128
:101CF000E59F300DF49F300D1124E0910502F09125
:101D00000602E69FA001E79F500DF69F500D11249B
:101D1000420F531F5093EB074093EA0770938103E0
:101D20006093800320910B0230910C02CA01820F54
:101D3000931F02962FEF20932801809580938800AF
:101D400080910B0290910C024091EA075091EB07B1
:101D5000841B950B20932C01809580938A00DF9142
:101D6000CF91FF90EF90DF90CF90BF90AF909F907A
:101D70008F907F906F905F904F90089580E00E94C9
:101D8000461580931E08282F30E03093E9072093F2
:101D9000E8071F928F9380E392E09F938F938FE1E8
:101DA00098E09F938F930E940E1D0F900F900F90BD
:101DB0000F900F900F908FE198E00C9483010E9498
:101DC000C20D8093AA088F3FA9F02091860330911D
:101DD0008703F901EF5AF74F80832F5F3F4F30930E
:101DE0008703209386038FE99FE00197F1F700C0F6
:101DF0000000E5CF809151088A32A9F361E578E0CF
:101E00008AE993E00E94071DE1E5F8E0119288E07D
:101E1000E338F807D9F78AE28093510810928703D4
:101E200010928603109285031092840308950F93F5
:101E30001F93CF93DF930E94CA0D0091ED0C109178
:101E4000EE0C8091830890918408C5EADFEF980139
:101E5000281B390BC9014E96CD9778F0C093280105
:101E6000D0938800D0932C01C0938A000E94CA0DA1
:101E70008091830890918408EACF8FEF80932801A6
:101E80008093880080932C0180938A0080917E0348
:101E900090917F03009719F483E090E005C08230B1
:101EA000910539F481E090E090937F0380937E0365
:101EB0000CC08330910519F482E090E0F5CF0197D2
:101EC00021F410927F0310927E03DF91CF911F9136
:101ED0000F9108950F931F93CF93DF930E94CA0D24
:101EE0000091ED0C1091EE0C809183089091840884
:101EF000C5EADFEF9801281B390BC9014E96CD9733
:101F000078F0C0932C01D0938A00D0932801C0931D
:101F100088000E94CA0D8091830890918408EACFBE
:101F20008FEF809328018093880080932C01809309
:101F30008A0080917E0390917F03009719F481E0DD
:101F400090E005C08130910539F482E090E09093F3
:101F50007F0380937E030CC08230910519F483E0E7
:101F600090E0F5CF039721F410927F0310927E0347
:101F7000DF91CF911F910F9108950E946A0F0C94E9
:101F80006A0F8FEF809328018093880080932C0143
:101F900080938A0008952091A6083091A708AC018B
:101FA000421B530B4130510511F580917E039091F6
:101FB0007F03009719F40E946A0F0AC083309105CD
:101FC00019F40E94BD0F04C0029711F40E94170F6C
:101FD0000E94BE0E8091E8079091E907C0972CF40B
:101FE0000E94BE0E0E94280EF5CF0C94C10F4F3FE9
:101FF0005F4F01F580917E0390917F03009719F464
:102000000E94170F0AC08130910519F40E94BD0F7C
:1020100004C0029711F40E946A0F0E94BE0E8091C4
:10202000E8079091E907C09704F70E94BE0E0E944E
:10203000280EF5CF2817390709F051C08091A8085C
:102040009091A908681B790B6130710521F5809189
:102050007E0390917F038130910519F40E94170F40
:102060000AC08230910519F40E94BD0F04C0039785
:1020700011F40E946A0F0E94BE0E8091E8079091B1
:10208000E907C0972CF40E94BE0E0E94280EF5CFDF
:102090000E94C10F16C06F3F7F4F99F480917E035D
:1020A00090917F038330910519F40E94170F09C0A6
:1020B000009719F40E94BD0F04C0019711F40E940B
:1020C0006A0F0E94BE0E8091E8079091E907C097C1
:1020D0000CF08BCF0E94BE0E0E94280EF4CF089504
:1020E0006F927F929F92AF92BF92CF92DF92EF92C8
:1020F000FF920F931F93CF93DF93CDB7DEB72A974D
:102100000FB6F894DEBF0FBECDBFAAE9B3E080E002
:1021100090E020E030E0AD01FA0101900020E9F705
:102120003197EA59F3408E179F0770F46D916C3721
:1021300049F4E1E0F0E0EC0FFD1FE20FF31F8083B4
:102140002F5F3F4F0196E8CFDE0111969D0160E0C1
:1021500070E040E050E011EBA12E18E0B12E0AE053
:10216000902E0BEB18E0FD0101900020E9F731976C
:10217000EA1BFB0BC9018A1B9B0B8E179F0708F0FC
:10218000A9C0F90181919F01082E000C990B608074
:10219000062C000C7708FC01E656FC4F7F018615E3
:1021A0009705C4F4F701D1907F01F8E2DF1207C070
:1021B000FA01EF54F74F80834F5F5F4F09C0F9E298
:1021C000DF1206C0FB01E554F74F80836F5F7F4F3E
:1021D0000196E5CFE12CF12CFD0101900020E9F7FB
:1021E000CF018A1B9B0B0297E816F90608F0BBCFBC
:1021F0001092850310928403F50101900020E9F705
:102200003197E15BF84080918403909185038E17AC
:102210009F0728F5989EF001999EF00D1124EE0D70
:10222000FF1D3F01660C771CF301E250FC4F3F019C
:10223000FC01EF54F74FC0800C2C000CDD08F601B8
:10224000E656FC4FC1800C2C000CDD08F301D18256
:10225000C08201969093850380938403CDCF109222
:10226000850310928403F80101900020E9F731976B
:10227000EB5BF84080918403909185038E179F0754
:1022800028F5989EF001999EF00D1124EE0DFF1D8A
:102290003F01660C771CF301EB53F74F3F01FC0144
:1022A000E554F74FC0800C2C000CDD08F601E75612
:1022B000FC4FC0800C2C000CDD08F301D182C082E1
:1022C00001969093850380938403CDCFFFEFEF1A9F
:1022D000FF0A82CF2A960FB6F894DEBF0FBECDBF9D
:1022E000DF91CF911F910F91FF90EF90DF90CF90F2
:1022F000BF90AF909F907F906F9008958F929F9224
:10230000AF92BF92CF92DF92EF92FF920F931F9303
:10231000CF93DF93CDB7DEB76E970FB6F894DEBFDD
:102320000FBECDBF1092850310928403A0E0B0E0F1
:1023300060E070E040E050E00AE913E0F80101904D
:102340000020E9F73197EA59F34080918403909196
:1023500085038E179F0760F5FC01E656FC4F208130
:10236000283251F4E5E1F0E0EC0FFD1FE40FF51F1A
:1023700080834F5F5F4F16C0293251F4EBE0F0E0ED
:10238000EC0FFD1FE60FF71F80836F5F7F4F0AC0C2
:102390002A3341F4EBE0F0E0EC0FFD1FEA0FFB1FE6
:1023A0008083119601969093850380938403C6CF12
:1023B0006E018BE0C80ED11C7E01E5E1EE0EF11C32
:1023C0008DEA882E8CE0982E86015701F501019048
:1023D0000020E9F73197EA19FB09C8018C199D091A
:1023E0008E179F07A0F4F80141918F01F7016191C9
:1023F0007F01042E000C550B062E000C770B8AE98A
:1024000093E00E948F0CF40181934F01DFCFDE0136
:1024100011962CE938E0CD01FD0101900020E9F78B
:102420003197EA1BFB0BAC014A1B5B0B4E175F0796
:1024300068F4FC014191CF01E42F440FFF0BE756F4
:10244000FC4F4081F90141939F01E6CFECE9F8E0B0
:1024500001900020E9F73197EC59F840F093990387
:10246000E09398036E960FB6F894DEBF0FBECDBF13
:10247000DF91CF911F910F91FF90EF90DF90CF9060
:10248000BF90AF909F908F900895FC01E41BF50BD7
:10249000E130F10589F480917E0390917F030097EC
:1024A00011F40C946A0F8330910511F40C94BD0F54
:1024B000029799F50C94170F319661F480917E0381
:1024C00090917F030097B1F38130910579F30297E2
:1024D00021F5E7CF8417950701F5621B730B613077
:1024E000710569F480917E0390917F03813091059D
:1024F00009F382309105D1F2039779F4D2CF6F3F7F
:102500007F4F59F480917E0390917F038330910532
:1025100089F2009759F2019721F20895CF92DF9244
:10252000EF92FF920F931F93CF93DF93C12CD12C87
:102530000FEF10E0C8E1D0E07AE0E72EFF24FA9434
:102540000E94BE0E8091E8079091E9070097D1F1B3
:10255000883F9105B9F19801281B390BC9019E01EB
:10256000281B390BA9014C195D09CA01880F991F55
:10257000480F591FE29EC001E39E900D1124480FA1
:10258000591F6FEF81EE94E0615080409040E1F779
:1025900000C0000080910B0290910C02840F951FE7
:1025A000F092280180958093880080910B02909191
:1025B0000C02841B950BF0922C01809580938A006D
:1025C0006901BECFDF91CF911F910F91FF90EF90E6
:1025D000DF90CF90089582E084BD95E095BD9AE7A5
:1025E00097BD80936E0008952FB7F894609188038B
:1025F0007091890380918A0390918B032FBF089576
:102600001F920F920FB60F9211248F939F93AF9347
:10261000BF938091880390918903A0918A03B09120
:102620008B030796A11DB11D8093880390938903A6
:10263000A0938A03B0938B0380918C039DE6980F3F
:102640009D3718F490938C0316C0805180938C03AF
:102650008091880390918903A0918A03B0918B03A4
:102660000196A11DB11D8093880390938903A093C7
:102670008A03B0938B03BF91AF919F918F910F907D
:102680000FBE0F901F9018951092B90080EC8093A8
:10269000B800089594EA9093BC009091BC0097FF15
:1026A000FCCF9091B900987F983021F0903111F0D3
:1026B00081E008958093BB0084E88093BC00809102
:1026C000BC0087FFFCCF8091B900887F883111F072
:1026D000803471F780E0089524EA34E844E92093D7
:1026E000BC009091BC0097FFFCCF9091B900987FFF
:1026F000983011F0903199F78093BB003093BC0073
:102700009091BC0097FFFCCF9091B900987F9032D8
:1027100011F0983539F44093BC009091BC0094FDC1
:10272000FCCFDDCF08950C944A1384E98093BC005C
:102730008091BC0084FDFCCF08958093BB0084E8A9
:102740008093BC008091BC0087FFFCCF9091B900C2
:10275000987F81E0983209F480E0089584EC8093BA
:10276000BC008091BC0087FFFCCF8091BB00089526
:1027700084E88093BC008091BC0087FFFCCF8091EF
:10278000BB000895CF93DF93D62FC42F805C0E94A7
:102790006C138D2F0E949D138C2F0E949D13DF912F
:1027A000CF910C949513CF93DF930E94441383E051
:1027B0008A95F1F70000C6EEDCE018828FEF89837E
:1027C0008A831B821C824981888160E00E94C21337
:1027D0004A81888161E0DF91CF910C94C2138230ED
:1027E00060F495E0899FF0011124EA51F34F618371
:1027F0004181808160E00C94C2130895823060F4BE
:1028000095E0899FF0011124EA51F34F62834281E0
:10281000808161E00C94C2130895823018F5A82FCE
:10282000B0E095E0899FF0011124EA51F34F218136
:1028300081E090E001C0880F6A95EAF7411103C07A
:102840008095822301C0822B95E09A9FF0019B9F87
:10285000F00D1124EA51F34F81834181808160E0C2
:102860000C94C2130895823018F5A82FB0E095E0BB
:10287000899FF0011124EA51F34F228181E090E019
:1028800001C0880F6A95EAF7411103C08095822341
:1028900001C0822B95E09A9FF0019B9FF00D1124BF
:1028A000EA51F34F82834281808161E00C94C2132C
:1028B0000895823060F495E0899FF0011124EA5177
:1028C000F34F63834381808162E10C94C2130895C6
:1028D000823060F495E0899FF0011124EA51F34FB2
:1028E00064834481808163E10C94C21308951F9333
:1028F000CF93DF93162FD42FC52F805C0E946C13CB
:10290000812F0E949D138D2F0E949D138C2F0E945A
:102910009D13DF91CF911F910C949513CF93DF936B
:10292000C82FD62F80E48C0F0E946C138D2F0E942D
:102930009D1381E48C0F0E9493130E94B813C82F3B
:102940000E9495138C2FDF91CF9108950F931F93C1
:10295000CF93DF93823060F5142F062FC82FD0E07D
:1029600095E0899FF0011124EA51F34F808164E1E1
:102970000E948E1421E030E001C0220F0A95EAF790
:10298000111103C02095282301C0282B85E08C9FBE
:10299000F0018D9FF00D1124EA51F34F2383438101
:1029A000808162E1DF91CF911F910F910C94C2134E
:1029B000DF91CF911F910F9108950F931F93CF93A4
:1029C000DF93823060F5142F062FC82FD0E095E0FA
:1029D000899FF0011124EA51F34F808165E10E9443
:1029E0008E1421E030E001C0220F0A95EAF71111A0
:1029F00003C02095282301C0282B85E08C9FF0017F
:102A00008D9FF00D1124EA51F34F2483448180817E
:102A100063E1DF91CF911F910F910C94C213DF916D
:102A2000CF911F910F910895CF93823098F4C62FC4
:102A300095E0899FF0011124EA51F34F808162E112
:102A40000E948E1490E002C095958795CA95E2F792
:102A5000817001C080E0CF910895CF93823098F4C7
:102A6000C62F95E0899FF0011124EA51F34F808130
:102A700063E10E948E1490E002C095958795CA95F7
:102A8000E2F7817001C080E0CF910895823050F468
:102A900095E0899FF0011124EA51F34F808162E1B2
:102AA0000C948E1480E00895823050F495E0899F54
:102AB000F0011124EA51F34F808163E10C948E14EC
:102AC00080E00895FF920F931F93CF93DF9382309E
:102AD00068F5122F042FF62E95E0899FE00111244E
:102AE000CA51D34F88816AE00E948E14E1E0F0E081
:102AF000BF0101C0660FFA94EAF78F7B862BBF01F6
:102B000001C0660F0A95EAF78B7F682B01C0EE0FB4
:102B10001A95EAF76D7F462F4E2B88816AE0DF9188
:102B2000CF911F910F91FF900C94C213DF91CF9121
:102B30001F910F91FF900895FF920F931F93CF93D2
:102B4000DF93823068F5122F042FF62E95E0899FCF
:102B5000E0011124CA51D34F88816BE00E948E148A
:102B6000E1E0F0E0BF0101C0660FFA94EAF78F7B65
:102B7000862BBF0101C0660F0A95EAF78B7F682B91
:102B800001C0EE0F1A95EAF76D7F462F4E2B888114
:102B90006BE0DF91CF911F910F91FF900C94C213C6
:102BA000DF91CF911F910F91FF900895BF92CF9227
:102BB000DF92EF92FF920F931F93CF93DF938230B8
:102BC00008F069C0D02EB22E142FD62FE82EF12C8B
:102BD00025E0829FF0011124EA51F34F808168E0E3
:102BE0000E948E1441E050E0FA0102C0EE0FFF1F78
:102BF000DA95E2F7EF01CE2EC094112319F04C2D97
:102C0000482302C04E2F482B85E08E9D80018F9D6A
:102C1000100D11240A51134FF801808168E00E94C1
:102C2000C213F801808166E00E948E14BB2019F067
:102C30004C2D482302C04C2F482B85E08E9D8001EF
:102C40008F9D100D11240A51134FF801808166E009
:102C50000E94C213F801808164E00E948E14D1109A
:102C600003C04C2D482302C04C2F482B85E08E9D7D
:102C7000F0018F9DF00D1124EA51F34F808164E043
:102C8000DF91CF911F910F91FF90EF90DF90CF9048
:102C9000BF900C94C213DF91CF911F910F91FF90C1
:102CA000EF90DF90CF90BF900895BF92CF92DF92C8
:102CB000EF92FF920F931F93CF93DF93823008F030
:102CC00069C0D02EB22E142FD62FE82EF12C25E07D
:102CD000829FF0011124EA51F34F808169E00E9444
:102CE0008E1441E050E0FA0102C0EE0FFF1FDA95AA
:102CF000E2F7EF01CE2EC094112319F04C2D48239A
:102D000002C04E2F482B85E08E9D80018F9D100DB7
:102D100011240A51134FF801808169E00E94C21307
:102D2000F801808167E00E948E14BB2019F04C2DC1
:102D3000482302C04C2F482B85E08E9D80018F9D3B
:102D4000100D11240A51134FF801808167E00E9491
:102D5000C213F801808165E00E948E14D11003C077
:102D60004C2D482302C04C2F482B85E08E9DF0014E
:102D70008F9DF00D1124EA51F34F808165E0DF91C2
:102D8000CF911F910F91FF90EF90DF90CF90BF9068
:102D90000C94C213DF91CF911F910F91FF90EF9090
:102DA000DF90CF90BF900895CF93DF9300D01F9214
:102DB000CDB7DEB787E690E00E9412010E94AC0119
:102DC0000E94BE0D0E94BF0C0E9444130E94B30DCE
:102DD0000E94710D61E080E090E00E94580861E07F
:102DE00081E090E00E94580861E082E090E00E945B
:102DF00058080E94D3136FEF80E40E94EF1360E045
:102E000080E40E94FE1360E080E40E94681440E0C9
:102E100050E0BA0180E090E00E94550340E050E0AD
:102E2000BA0181E090E00E9455030E94BE0E40E08E
:102E300050E0BA0182E090E00E9455038AE280935C
:102E400051081092A7081092A6081092A908109293
:102E5000A8080E94DF0E84E392E00E9483010E9492
:102E6000DF0E84E392E00E9483010E947E110E94A3
:102E7000DF0E0E947010679BFECF8BE392E00E94F2
:102E800083018DEAE82E8CE0F82E91EB292E98E054
:102E9000392E2CE9422E28E0522E86E898E09C83B9
:102EA0008B8335ECA32E38E0B32E4EEF842E43E017
:102EB000942E5BEBC52E58E0D52E209198033091CF
:102EC0009903C6018B5B9840281739070CF4A7C0FB
:102ED00000E010E0612C712C8B819C819A838983A6
:102EE000EB81FC81808191816816790694F4F5016B
:102EF000E00FF11F60817181F401E00FF11F80810B
:102F000091810E94CB0F9FEF691A790A0C5E1F4FC7
:102F1000E7CF0197F4E1F89FA001F99F500D11242C
:102F20009A012B53374F42505C4FF7016181062EB7
:102F3000000C770B8081082E000C990B0E94451223
:102F4000F601A1916F01F10141911F01F2018191FF
:102F50002F010A2E000CBB0BA756BC4F9C91292FAA
:102F6000092E000C330B3F939F93E42F440FFF0B6C
:102F7000E656FC4F9181292F092E000C330B3F930D
:102F80009F93282F082E000C330B3F938F9385E4DB
:102F900092E09F938F938CEE97E09F938F930E9484
:102FA0000E1D8CEE97E00E9483010E94D00CFFEF73
:102FB00023ED40E3F15020404040E1F700C0000025
:102FC0000E94D60C8B819C8102969C838B83E98125
:102FD000FA812081318121503109F4E1F29FC00151
:102FE000F39F900D11249C0122503C4F3093A70871
:102FF0002093A6088B53974F9093A9088093A80815
:1030000022E0E20EF11C42E0A40EB11C82E0880E28
:10301000911C0FB6F894DEBF0FBECDBF4ECF0E94FD
:103020006A0F9FEF90932801EBE9E093880090935B
:103030002C01E0938A00FFEF23EC49E0F15020409F
:103040004040E1F700C000000E94C10F0E948E12B4
:103050008091E8079091E907892BB9F48FEF80936D
:1030600028019BE99093880080932C0190938A001B
:10307000EFEFF3EC29E0E150F0402040E1F700C031
:1030800000000E94C10F0E946A0F0E948E12809160
:10309000E8079091E907883F9105B9F49FEF909375
:1030A00028018BE98093880090932C0180938A00FB
:1030B0004FEF83EC99E0415080409040E1F700C031
:1030C00000000E94C10F0E94170F9FEF90932801EC
:1030D0008BE98093880090932C0180938A00EFEF16
:1030E000F3EC29E0E150F0402040E1F700C000009F
:1030F0000E94C10F84E592E00E948301FFCFA1E20C
:103100001A2EAA1BBB1BFD010DC0AA1FBB1FEE1F61
:10311000FF1FA217B307E407F50720F0A21BB30BAC
:10312000E40BF50B661F771F881F991F1A9469F728
:1031300060957095809590959B01AC01BD01CF0184
:1031400008950E94B418A59F900DB49F900DA49F60
:10315000800D911D11240895B7FF0C94A1180E94B1
:10316000A118821B930B0895A29FB001B39FC001C9
:10317000A39F700D811D1124911DB29F700D811DA3
:103180001124911D08955058BB27AA270E94DB18CF
:103190000C94B61A0E94A81A38F00E94AF1A20F0B8
:1031A00039F49F3F19F426F40C947E1A0EF4E0953E
:1031B000E7FB0C94781AE92F0E94C71A58F3BA1744
:1031C000620773078407950720F079F4A6F50C943D
:1031D000E91A0EF4E0950B2EBA2FA02D0B01B901C0
:1031E00090010C01CA01A0011124FF27591B99F07D
:1031F000593F50F4503E68F11A16F040A22F232F89
:10320000342F4427585FF3CF469537952795A795D8
:10321000F0405395C9F77EF41F16BA0B620B730B7F
:10322000840BBAF09150A1F0FF0FBB1F661F771FF0
:10323000881FC2F70EC0BA0F621F731F841F48F4A5
:10324000879577956795B795F7959E3F08F0B0CF2E
:103250009395880F08F09927EE0F97958795089515
:103260000E94541A08F481E008950E9449190C94B0
:10327000B61A0E94AF1A58F00E94A81A40F029F41A
:103280005F3F29F00C94781A51110C94EA1A0C94AF
:103290007E1A0E94C71A68F39923B1F3552391F35C
:1032A000951B550BBB27AA2762177307840738F0B5
:1032B0009F5F5F4F220F331F441FAA1FA9F335D012
:1032C0000E2E3AF0E0E832D091505040E695001CC6
:1032D000CAF72BD0FE2F29D0660F771F881FBB1F80
:1032E000261737074807AB07B0E809F0BB0B802D5E
:1032F000BF01FF2793585F4F3AF09E3F510578F08A
:103300000C94781A0C94EA1A5F3FE4F3983ED4F3D5
:10331000869577956795B795F7959F5FC9F7880F5D
:10332000911D9695879597F90895E1E0660F771FAF
:10333000881FBB1F621773078407BA0720F0621B40
:10334000730B840BBA0BEE1F88F7E095089529F4F0
:1033500016F00C94781A0C94E91A0C947E1A0E94B8
:10336000CF1AA8F39638A0F707F80F92E8942BE34A
:103370003AEA48EB5FE70E94811B0F920F920F928F
:103380004DB75EB70F920E94371BE4EEF0E00E944B
:10339000811A4F915F91EF91FF91E595EE1FFF1F0D
:1033A00049F0FE57E0684427EE0F441FFA95E1F715
:1033B0004195550B0E94011B0F9007FE0C94F51AC6
:1033C00008950E94E8196894B1110C94EA1A0895BE
:1033D0000E94CF1A88F09F5798F0B92F9927B751BC
:1033E000B0F0E1F0660F771F881F991F1AF0BA95A9
:1033F000C9F714C0B13091F00E94E91AB1E0089504
:103400000C94E91A672F782F8827B85F39F0B93FF5
:10341000CCF3869577956795B395D9F73EF490955B
:103420008095709561957F4F8F4F9F4F0895E894D9
:1034300009C097FB3EF490958095709561957F4FFC
:103440008F4F9F4F9923A9F0F92F96E9BB279395AA
:10345000F695879577956795B795F111F8CFFAF4BA
:10346000BB0F11F460FF1BC06F5F7F4F8F4F9F4FEB
:1034700016C0882311F096E911C0772321F09EE849
:10348000872F762F05C0662371F096E8862F70E0AF
:1034900060E02AF09A95660F771F881FDAF7880F89
:1034A0009695879597F90895990F0008550FAA0BDF
:1034B000E0E8FEEF16161706E807F907C0F0121647
:1034C0001306E407F50798F0621B730B840B950B4A
:1034D00039F40A2661F0232B242B252B21F408959F
:1034E0000A2609F4A140A6958FEF811D811D08953C
:1034F00097F99F6780E870E060E008959FEF80ECA7
:103500000895DF93CF931F930F93FF92EF92DF9273
:103510007B018C01689406C0DA2EEF010E947E1BAD
:10352000FE01E894A5912591359145915591A6F319
:10353000EF010E94DB18FE019701A801DA9469F7F8
:10354000DF90EF90FF900F911F91CF91DF91089541
:1035500000240A9416161706180609060895002472
:103560000A9412161306140605060895092E0394EC
:10357000000C11F4882352F0BB0F40F4BF2B11F460
:1035800060FF04C06F5F7F4F8F4F9F4F089557FDBF
:103590009058440F551F59F05F3F71F04795880FC1
:1035A00097FB991F61F09F3F79F087950895121658
:1035B00013061406551FF2CF4695F1DF08C0161604
:1035C00017061806991FF1CF8695710561050894B5
:1035D0000895E894BB2766277727CB0197F90895CC
:1035E0000E94541A08F48FEF08959B01AC0160E02B
:1035F00070E080E89FE30C9435190C94781A0C94D1
:10360000D81B0E94CF1AD8F39923C9F3940F511DE8
:10361000A3F39150504094F059F0882332F0660F94
:10362000771F881F91505040C1F79E3F51052CF7DE
:10363000880F911D9695879597F908955F3FACF097
:10364000983E9CF0BB27869577956795B79508F4CB
:10365000B1609395C1F7BB0F58F711F460FFE8CF45
:103660006F5F7F4F8F4F9F4FE3CF0C94EA1AFA01A1
:10367000DC01AA0FBB1F9B01AC01BF5728F4222716
:1036800033274427507820C0B75190F4AB2F002443
:10369000469537952795011CA395D2F3002071F02C
:1036A000220F331F441FB395DAF30ED00C94C318C6
:1036B00061307105A0E88A07B94630F49B01AC017E
:1036C0006627772788279078309621F020833183EA
:1036D0004283538308950E947E1B0C94B61A0E9465
:1036E000A81A38F00E94AF1A20F0952311F00C941C
:1036F000781A0C947E1A11240C94EA1A0E94C71AA4
:1037000070F3959FC1F3950F50E0551F629FF00134
:10371000729FBB27F00DB11D639FAA27F00DB11D4D
:10372000AA1F649F6627B00DA11D661F829F2227D6
:10373000B00DA11D621F739FB00DA11D621F839F5D
:10374000A00D611D221F749F3327A00D611D231F33
:10375000849F600D211D822F762F6A2F11249F5781
:1037600050409AF0F1F088234AF0EE0FFF1FBB1F84
:10377000661F771F881F91505040A9F79E3F510543
:1037800080F00C94781A0C94EA1A5F3FE4F3983EA8
:10379000D4F3869577956795B795F795E7959F5FED
:1037A000C1F7FE2B880F911D9695879597F908957F
:1037B0009F3F31F0915020F4879577956795B795A5
:1037C000880F911D9695879597F908950F931F93EC
:1037D000CF93DF938230910510F482E090E0E09186
:1037E000F10CF091F20C20E030E0A0E0B0E0309776
:1037F00019F1408151810281138148175907C8F09E
:103800008417950769F4109731F012960C9312976C
:1038100013961C9327C00093F10C1093F20C22C056
:103820002115310519F04217530718F49A01BD010B
:10383000EF01DF01F801DBCF21153105F9F0281B7D
:10384000390B2430310580F48A819B816115710523
:1038500021F0FB019383828304C09093F20C809348
:10386000F10CFE01329644C0FE01E20FF31F81937A
:10387000919322503109398328833AC02091EF0C6B
:103880003091F00C232B41F420910F023091100263
:103890003093F00C2093EF0C20910D0230910E022A
:1038A0002115310541F42DB73EB7409111025091D9
:1038B0001202241B350BE091EF0CF091F00CE21793
:1038C000F307A0F42E1B3F0B2817390778F0AC0143
:1038D0004E5F5F4F2417350748F04E0F5F1F509320
:1038E000F00C4093EF0C8193919302C0E0E0F0E084
:1038F000CF01DF91CF911F910F910895CF93DF9367
:10390000009709F481C0FC01329713821282A091C2
:10391000F10CB091F20C109781F420813181820F6B
:10392000931F2091EF0C3091F00C2817390751F5B7
:10393000F093F00CE093EF0C67C0ED0120E030E075
:10394000CE17DF0740F44A815B819E014115510586
:10395000F1F0EA01F5CFD383C28340815181840F16
:10396000951FC817D90759F488819981840F951F2D
:103970000296918380838A819B8193838283211520
:10398000310529F4F093F20CE093F10C3DC0E9010C
:10399000FB83EA8349915991C40FD51FEC17FD07AA
:1039A00061F480819181840F951F0296E9019983CA
:1039B0008883828193819B838A83E0E0F0E0129682
:1039C0008D919C911397009719F0FD01DC01F7CFC1
:1039D0008D919C9111979D012E5F3F4F820F931FF8
:1039E0002091EF0C3091F00C2817390769F43097CB
:1039F00029F41092F20C1092F10C02C01382128280
:103A0000B093F00CA093EF0CDF91CF910895FB01E0
:103A1000DC0101900D920020E1F708950F931F93B0
:103A2000CF93DF93CDB7DEB72E970FB6F894DEBFF6
:103A30000FBECDBF0E891F8986E08C831A83098350
:103A40008FEF9FE79E838D83AE01465E5F4F688D4B
:103A5000798DCE0101960E943D1DEF81F885E00F22
:103A6000F11F10822E960FB6F894DEBF0FBECDBFA9
:103A7000DF91CF911F910F9108952F923F924F9216
:103A80005F926F927F928F929F92AF92BF92CF92EE
:103A9000DF92EF92FF920F931F93CF93DF93CDB7F7
:103AA000DEB72B970FB6F894DEBF0FBECDBF6C010B
:103AB0007B018A01FC0117821682838181FFCCC1C0
:103AC000CE0101963C01F6019381F70193FD8591AA
:103AD00093FF81917F01882309F4BAC1853239F4BB
:103AE00093FD859193FF81917F01853229F4B60181
:103AF00090E00E945D1FE7CF912C212C312CFFE13B
:103B0000F315D8F08B3279F038F4803279F08332C3
:103B1000A1F4232D20611DC08D3261F0803369F442
:103B2000232D216016C0832D8260382EE32DE460A2
:103B30003E2E2AC0F32DF8601DC037FC2DC020EDAD
:103B4000280F2A3040F08E32B9F436FC81C1232D83
:103B50002064322E19C036FE06C08AE0989E200DE1
:103B60001124922E11C0EAE02E9E200D1124222E47
:103B7000F32DF0623F2E08C08C3621F4832D80682F
:103B8000382E02C0883641F4F70193FD859193FFEA
:103B900081917F018111B3CF982F9F7D95549330F0
:103BA00028F40C5F1F4F9FE399830DC0833631F0DB
:103BB000833771F0833509F059C021C0F801808145
:103BC00089830E5F1F4F88248394912C530113C067
:103BD0002801F2E04F0E511CF801A080B18036FEA2
:103BE00003C0692D70E002C06FEF7FEFC5010E9436
:103BF000521F4C018201F32DFF773F2E16C0280182
:103C000022E0420E511CF801A080B18036FE03C0B4
:103C1000692D70E002C06FEF7FEFC5010E94471F62
:103C20004C01F32DF0683F2E820133FC1BC0822D26
:103C300090E088169906B0F4B60180E290E00E9408
:103C40005D1F2A94F4CFF50137FC859137FE8191F1
:103C50005F01B60190E00E945D1F21102A9421E0CF
:103C6000821A91088114910471F7E8C0843611F02A
:103C7000893641F5F80137FE07C060817181828184
:103C800093810C5F1F4F08C060817181072E000C6B
:103C9000880B990B0E5F1F4FF32DFF763F2E97FF7A
:103CA00009C090958095709561957F4F8F4F9F4F7C
:103CB000F0683F2E2AE030E0A3010E94991F882E71
:103CC000861845C0853731F4232D2F7EB22E2AE089
:103CD00030E025C0932D997FB92E8F36C1F018F4AE
:103CE000883579F0B5C0803719F0883721F0B0C039
:103CF000E92FE061BE2EB4FE0DC0FB2DF460BF2E97
:103D000009C034FE0AC0292F2660B22E06C028E062
:103D100030E005C020E130E002C020E132E0F801EF
:103D2000B7FE07C060817181828193810C5F1F4F54
:103D300006C06081718180E090E00E5F1F4FA3019B
:103D40000E94991F882E8618FB2DFF773F2E36FE86
:103D50000DC0232D2E7FA22E891458F434FE0BC0E3
:103D600032FC09C0832D8E7EA82E05C0B82CA32C52
:103D700003C0B82C01C0B92CA4FE0FC0FE01E80D91
:103D8000F11D8081803321F49A2D997EA92E09C0DE
:103D9000A2FE06C0B394B39404C08A2D867809F0BD
:103DA000B394A3FC11C0A0FE06C0B21488F4280C82
:103DB000922C9B180EC0B21460F4B60180E290E021
:103DC0000E945D1FB394F7CFB21418F42B1802C0F1
:103DD000982C212CA4FE10C0B60180E390E00E9434
:103DE0005D1FA2FE17C0A1FC03C088E790E002C0DF
:103DF00088E590E0B6010CC08A2D867859F0A1FEC6
:103E000002C08BE201C080E2A7FC8DE2B60190E027
:103E10000E945D1F891438F4B60180E390E00E948F
:103E20005D1F9A94F7CF8A94F301E80DF11D80810C
:103E3000B60190E00E945D1F8110F5CF222009F4A9
:103E400042CEB60180E290E00E945D1F2A94F6CF38
:103E5000F6018681978102C08FEF9FEF2B960FB6F8
:103E6000F894DEBF0FBECDBFDF91CF911F910F91B0
:103E7000FF90EF90DF90CF90BF90AF909F908F908A
:103E80007F906F905F904F903F902F900895FC012E
:103E90000590615070400110D8F7809590958E0F75
:103EA0009F1F0895FC016150704001900110D8F7E8
:103EB000809590958E0F9F1F08950F931F93CF931A
:103EC000DF93FB01238121FD03C08FEF9FEF2CC007
:103ED00022FF16C04681578124813581421753073E
:103EE00044F4A081B1819D012F5F3F4F3183208336
:103EF0008C93268137812F5F3F4F3783268314C0F1
:103F00008B01EC01FB010084F185E02D1995892BD3
:103F1000E1F6D80116968D919C9117970196179608
:103F20009C938E931697CE01DF91CF911F910F91A5
:103F30000895FA01AA27283051F1203181F1E8943F
:103F40006F936E7F6E5F7F4F8F4F9F4FAF4FB1E08C
:103F50003ED0B4E03CD0670F781F891F9A1FA11D87
:103F6000680F791F8A1F911DA11D6A0F711D811D88
:103F7000911DA11D20D009F468943F912AE0269F4D
:103F800011243019305D3193DEF6CF010895462FAC
:103F90004770405D4193B3E00FD0C9F7F6CF462F8D
:103FA0004F70405D4A3318F0495D31FD40524193F6
:103FB00002D0A9F7EACFB4E0A695979587957795B3
:103FC0006795BA95C9F700976105710508959B013A
:103FD000AC010A2E06945795479537952795BA95C3
:103FE000C9F7620F731F841F951FA01D0895F894D1
:023FF000FFCF01
:103FF2005225001900080001302E2C41000000F368
:104002000C8000407B746F66313A25642C746F66B5
:10401200323A25642C746F66333A25647D400A0077
:1040220025640A00406F6B617940004073746172CD
:10403200746564400040247C25647C2825642C251A
:104042006429400040484120726561636865642CC0
:104052005461736B20206163636F6D706C69736868
:064062006564214000002E
:00000001FF
