:100000000C9488000C94A9000C94A9000C94A900ED
:100010000C94A9000C94A9000C94A9000C94A900BC
:100020000C94A9000C94A9000C94A9000C94A900AC
:100030000C94A9000C94A9000C94A9000C94A9009C
:100040000C94A9000C94A9000C94A9000C94A9008C
:100050000C94A9000C94C0000C94A9000C94A90065
:100060000C94A9000C945A120C9493120C94A900AD
:100070000C94A9000C94A9000C94A9000C94A9005C
:100080000C94A9000C94A9000C94A9000C94A9004C
:100090000C94A9000C94A9000C94A9000C94A9003C
:1000A0000C94A9000C94A9000C94A9000C94A9002C
:1000B0000C94A9000C94A9000C94A9000C94A9001C
:1000C0000C94A9000C94A9000C94A9000C94A9000C
:1000D0000C94A9000C94A9000C94A9000C94A900FC
:1000E0000C94A90007634236B79BD8A71A39685603
:1000F00018AEBAAB558C1D3CB7CC5763BD6DEDFD4A
:10010000753EF6177231BF000000803F0C9451021B
:1001100011241FBECFEFD1E2DEBFCDBF00E00CBF88
:1001200012E0A0E0B2E0E2E1F0E400E00BBF02C0C8
:1001300007900D92A238B107D9F72AE3A2E8B2E0FE
:1001400001C01D92A13FB207E1F70E94F4160C9482
:1001500007200C94000082E084BD95E095BD9AE7ED
:1001600097BD80936E0008952FB7F8946091820236
:100170007091830280918402909185022FBF08952F
:100180001F920F920FB60F9211248F939F93AF93EC
:10019000BF938091820290918302A0918402B091DA
:1001A00085020796A11DB11D809382029093830260
:1001B000A0938402B0938502809186029DE6980FF9
:1001C0009D3718F49093860216C080518093860262
:1001D0008091820290918302A0918402B091850265
:1001E0000196A11DB11D8093820290938302A0937A
:1001F0008402B0938502BF91AF919F918F910F9030
:100200000FBE0F901F901895E1E0F1E080818863A8
:1002100080836F98E2E0F1E08081886380830895B5
:100220008CB1881F8827881F0895E2E0F1E0808163
:10023000877F80830895E2E0F1E080818860808399
:100240000895E2E0F1E080818F7E80830895E2E00E
:10025000F1E08081806180830895E2E0F1E08081B7
:100260008F7D80830895E2E0F1E080818062808369
:100270000895EAE0F1E080818862808384B180663D
:1002800084B9EBE0F1E080818862808385B180668B
:1002900085B90895CF93DF93F894C1E8D0E0188230
:1002A00021E231E0D9011C928FEF809385001092FA
:1002B0008400109289008093880010928B008093B4
:1002C0008A0010928D0080938C00809325011092FB
:1002D0002401109229018093280110922B01809310
:1002E0002A0110922D0180932C01A0E2B1E08C91A3
:1002F000886A8C938C918B7A8C93E0E8F0E0808113
:10030000886A808380818B7A80838C9181608C93D2
:100310008C918D7F8C93D9018C9188608C93808196
:100320008160808380818D7F8083888188608883DD
:100330008C9183608C938C918B7F8C93888183606C
:10034000888388818B7F88837894DF91CF9108950B
:10035000609560932801809580938800089560954A
:1003600060932C01809580938A0008958FEF81B966
:1003700009988FE39CE90197F1F700C000006091B4
:10038000090280E090E00E94B00880E090E00E94C6
:10039000C708809302208FE39CE90197F1F700C022
:1003A00000000B986091080281E090E00E94B00884
:1003B00081E090E00E94C7088093BD218FE39CE913
:1003C0000197F1F700C000000D986091070282E0EC
:1003D00090E00E94B0088FE39CE90197F1F700C01C
:1003E000000082E090E00E94C7088093D63608950E
:1003F0000E9439010C944A010E94DE12911102C040
:10040000811108958FEF089560E070E080E090E042
:100410000E9493099093DC3A8093DB3A88979093FB
:10042000DA3A8093D93A60E070E081E090E00E948F
:1004300093099093EA208093E9209093E53A809382
:10044000E43A60E070E082E090E00E9493099093CB
:100450005521809354214E97909301208093002042
:100460009F938F938091E53A8F938091E43A8F9395
:100470008091DA3A8F938091D93A8F938DE092E010
:100480009F938F9387E39BE19F938F930E941E1D01
:100490008DB79EB70A960FB6F8949EBF0FBE8DBF5C
:1004A00008950E9404022091D93A3091DA3A80915D
:1004B000002090910120821B930B90939A028093CD
:1004C000990208954F925F926F927F928F929F92BE
:1004D000AF92BF92CF92DF92EF92FF92CF93DF93D2
:1004E0000E945102EC01BC01990F880B990B0E94EC
:1004F0004A1B0E94E01A6B017C01662777276C1B60
:100500007D0B072E000C880B990B0E944A1B0E9442
:10051000E01A4B015C019B01AC01C701B6010E94CE
:10052000F4192B013C01A5019401C701B6010E94F9
:10053000F5199B01AC01C301B2010E94661A0E9429
:10054000121B70939A026093990220919702309146
:100550009802FB01E21BF30B40910202509103024F
:10056000E49F9001E59F300DF49F300D1124E09140
:100570000402F0910502E69FA001E79F500DF69F4F
:10058000500D1124420F531F5093361B4093351BBF
:10059000709398026093970220910A0230910B02A7
:1005A000CA01820F931F02962FEF20932801809596
:1005B0008093880080910A0290910B024091351B34
:1005C0005091361B841B950B20932C0180958093B2
:1005D0008A00DF91CF91FF90EF90DF90CF90BF9096
:1005E000AF909F908F907F906F905F904F90089505
:1005F00080E00E9466158093691B282F30E03093BD
:10060000341B2093331B1F928F938AE292E09F93B7
:100610008F938AE69BE19F938F930E941E1D0F90FC
:100620000F900F900F900F900F908AE69BE10C9423
:1006300034130E94FC01809353218F3FA9F0209135
:100640009D0230919E02F901E456F44E80832F5FA3
:100650003F4F30939E0220939D028FE99FE00197C8
:10066000F1F700C00000E5CF80919C1B8A32A9F30E
:100670006CE97BE189EA93E00E94171DECE9FBE15C
:1006800011928FE1EC39F807D9F78AE280939C1B2D
:1006900010929E0210929D0210929C0210929B0258
:1006A00008950F931F93CF93DF930E94040200914C
:1006B000E43A1091E53A8091002090910120C5EA3A
:1006C000DFEF9801281B390BC9014E96CD9778F0C2
:1006D000C0932801D0938800D0932C01C0938A0046
:1006E0000E9404028091002090910120EACF8FEFB8
:1006F000809328018093880080932C0180938A0046
:100700008091950290919602009719F483E090E011
:1007100005C08230910539F481E090E09093960213
:10072000809395020CC08330910519F482E090E02B
:10073000F5CF019721F41092960210929502DF9165
:10074000CF911F910F9108950F931F93CF93DF9334
:100750000E9404020091E43A1091E53A8091002051
:1007600090910120C5EADFEF9801281B390BC901E0
:100770004E96CD9778F0C0932C01D0938A00D093F9
:100780002801C09388000E9404028091002090916B
:100790000120EACF8FEF8093280180938800809317
:1007A0002C0180938A008091950290919602009787
:1007B00019F481E090E005C08130910539F482E0C0
:1007C00090E090939602809395020CC08230910540
:1007D00019F483E090E0F5CF039721F4109296028C
:1007E00010929502DF91CF911F910F9108950E9471
:1007F000A4030C94A4038FEF8093280180938800B6
:1008000080932C0180938A00089520914F2130918C
:100810005021AC01421B530B4130510511F5809121
:10082000950290919602009719F40E94A4030AC0C1
:100830008330910519F40E94F70304C0029711F464
:100840000E9451030E94F8028091331B9091341B47
:10085000C0972CF40E94F8020E946202F5CF0C941B
:10086000FB034F3F5F4F01F58091950290919602F7
:10087000009719F40E9451030AC08130910519F4C0
:100880000E94F70304C0029711F40E94A4030E947F
:10089000F8028091331B9091341BC09704F70E949B
:1008A000F8020E946202F5CF2817390709F051C0FB
:1008B0008091512190915221681B790B6130710513
:1008C00021F580919502909196028130910519F45D
:1008D0000E9451030AC08230910519F40E94F70367
:1008E00004C0039711F40E94A4030E94F8028091AF
:1008F000331B9091341BC0972CF40E94F8020E9485
:100900006202F5CF0E94FB0316C06F3F7F4F99F440
:1009100080919502909196028330910519F40E947E
:10092000510309C0009719F40E94F70304C001970E
:1009300011F40E94A4030E94F8028091331B90914D
:10094000341BC0970CF08BCF0E94F8020E94620209
:10095000F4CF08956F927F928F929F92AF92BF9241
:10096000CF92DF92EF92FF920F931F93CF93DF937B
:100970001092900210928F02A9EAB3E080E090E01A
:10098000ED01FE0101900020E9F73197E95AF340AB
:100990008E179F0798F42D912C3771F420918F02B8
:1009A00030919002F901ED5FFF4D80832F5F3F4F43
:1009B0003093900220938F020196E3CF60918F02D3
:1009C000709190026150710970938E0260938D0254
:1009D00040919302509194028091910290919202E1
:1009E00030919B0220919C02CAEE6C2EC2E27C2EBA
:1009F000D6E5ED2ED1E2FD2EC9EAD7E0E3E0F0E244
:100A00008F0103501042061717070CF084C0219184
:100A1000022E000C330BA0800A2C000CBB08C9016D
:100A200087559C4F6C0140E050E080E090E02A1533
:100A30003B05F4F4D6011D916D01183259F48A0179
:100A4000000F111F02541E4DD8012D933C934F5F90
:100A50005F4F0BC0193249F48C01000F111F0A5768
:100A60001D4DD8012D933C9301962F5F3F4FDFCF53
:100A7000D7014D935D937D010EEB11E220E030E054
:100A800024173507DCF4D801AD90BD908D016901C4
:100A9000CC0CDD1C4E018C0C9D1CD501A755BC4F08
:100AA0001196CC900C2C000CDD08B0E3CB1AD108C9
:100AB000D401CD92DC922F5F3F4FE2CF06E812E2E5
:100AC00020E030E028173907D4F4D801AD90BD906C
:100AD0008D016901CC0CDD1C43018C0C9D1CD501E2
:100AE000A855BC4FCC900C2C000CDD08B0E3CB1A01
:100AF000D108D401CD92DC922F5F3F4FE3CF382F46
:100B0000292F97FF02C030E020E0B4E66B0E711C85
:100B1000CC59DF4F75CF30939B0220939C0290936A
:100B20009202809391025093940240939302DF913A
:100B3000CF911F910F91FF90EF90DF90CF90BF90DA
:100B4000AF909F908F907F906F900895AF92BF92DB
:100B5000CF92DF92EF92FF920F931F93CF93DF9389
:100B6000CDB7DEB76E970FB6F894DEBF0FBECDBF20
:100B700010928C0210928B0210928A0210928902BB
:100B8000109288021092870210929C0210929B028F
:100B9000A9EAB3E0FD0101900020E9F73197E95A95
:100BA000F34080919B0290919C028E179F0708F062
:100BB00045C0FC01E755FC4F2081283291F420917B
:100BC0008B0230918C02E5E1F0E0EC0FFD1FE20FAB
:100BD000F31F80832F5F3F4F30938C0220938B0253
:100BE00027C0293291F42091890230918A02EBE0EA
:100BF000F0E0EC0FFD1FE20FF31F80832F5F3F4FEC
:100C000030938A022093890213C02A3389F42091F9
:100C1000870230918802E1E0F0E0EC0FFD1FE20F67
:100C2000F31F80832F5F3F4F30938802209387020A
:100C3000019690939C0280939B02ACCF40918702D7
:100C4000509188025E0185E1A80EB11C62E272E259
:100C5000DE011B960CE91FE1FE0131967F018BEE50
:100C6000C82E80E2D82E20E030E024173507BCF5EE
:100C7000F50181915F01082E000C990B87559C4F5F
:100C8000FC018181082E000C990BC097FB01819318
:100C90009193BF018D91082E000C990B88559C4FA4
:100CA000FC018081082E000C990BC097F8018193FC
:100CB00091938F01F70181917F01082E000C990B10
:100CC00088559C4FFC018081082E000C990BC09721
:100CD000F601819391936F012F5F3F4FC6CF5093E1
:100CE000A8034093A7036E960FB6F894DEBF0FBE1D
:100CF000CDBFDF91CF911F910F91FF90EF90DF90CB
:100D0000CF90BF90AF900895FC01E41BF50BE1304C
:100D1000F10589F48091950290919602009711F463
:100D20000C94A4038330910511F40C94F7030297FB
:100D300099F50C945103319661F48091950290914C
:100D400096020097B1F38130910579F3029721F56E
:100D5000E7CF8417950701F5621B730B61307105AE
:100D600069F480919502909196028130910509F382
:100D700082309105D1F2039779F4D2CF6F3F7F4F44
:100D800059F480919502909196028330910589F2F1
:100D9000009759F2019721F20895CF92DF92EF92D6
:100DA000FF920F931F93CF93DF93C12CD12C0FEFA2
:100DB00010E0C8E1D0E07AE0E72EFF24FA940E9428
:100DC000F8028091331B9091341B0097D1F1883F3A
:100DD0009105B9F19801281B390BC9019E01281B07
:100DE000390BA9014C195D09CA01880F991F480FD9
:100DF000591FE29EC001E39E900D1124480F591F18
:100E00006FEF81EE94E0615080409040E1F700C0C8
:100E1000000080910A0290910B02840F951FF092BE
:100E2000280180958093880080910A0290910B029E
:100E3000841B950BF0922C01809580938A006901A8
:100E4000BECFDF91CF911F910F91FF90EF90DF9078
:100E5000CF900895EF92FF920F931F93CF93DF935C
:100E6000E12CF12CC8E1D0E00AE01FEF0E94F8026B
:100E70008091331B9091341B0097B1F1883F91050D
:100E800099F1AE01481B590B9A012E193F09C9016E
:100E9000880F991F280F391F049FC001059F900DCF
:100EA0001124280F391F6FEF81EE94E061508040CC
:100EB0009040E1F700C0000080910A0290910B027F
:100EC000820F931F10932801809580938800809152
:100ED0000A0290910B02821B930B10932C018095B8
:100EE00080938A007A01C2CFDF91CF911F910F9139
:100EF000FF90EF9008956F98779A08950F931F933E
:100F00000097C9F0AC014150510960E070E080E009
:100F100090E08A019B010027012B022B032B31F06B
:100F200076956795579547950196F3CF982F882723
:100F3000842B952B02C080E090E01F910F910895C3
:100F4000CF93DF93D62FC42F8351954CFC01808122
:100F50000E946A138D2F0E94BD138C2F0E94BD1317
:100F6000DF91CF910C94B5131F93CF93DF93162F7E
:100F7000EA018351954CFC0180810E946A13812F04
:100F80000E94BD138D2F0E94BD138C2F0E94BD1394
:100F9000DF91CF911F910C94B513FF920F931F9384
:100FA000CF93DF93F62EE901142F052F8351954C33
:100FB000FC0180810E946A138F2D0E94BD13802F37
:100FC0000E94BD13812F0E94BD138D2F0E94BD135F
:100FD0008C2F0E94BD13DF91CF911F910F91FF9035
:100FE0000C94B5131F93CF93DF93162FEC01C351CD
:100FF000D54C88810E946A13812F0E94BD1388817D
:1010000081600E94B3130E94D813C82F0E94B513A9
:101010008C2FDF91CF911F910895CF93DF93D62F1F
:101020008351954CFC01C0818C2F0E946A138D2F37
:101030000E94BD138C2F81600E94B3130E94CE13B7
:10104000C82FD0E0DC2FCC270E94D813C82B0E94D9
:10105000B513CE01DF91CF910895CF92DF92EF9239
:10106000FF92CF93F62E8351954CFC01C0818C2FBB
:101070000E946A138F2D0E94BD138C2F81600E94E5
:10108000B3130E94CE13C82ED12CE12CF12CFC2CD2
:10109000EE24DD24CC240E94CE13E82A0E94CE1335
:1010A000C82F0E94D813C82ADC2A0E94B513C70192
:1010B000B601CF91FF90EF90DF90CF900895FF920F
:1010C0000F931F93CF93DF93162FF42ED52FC22F9C
:1010D0008351954CFC0180810E946A13812F0E94EC
:1010E000BD130F2D1D2FCC2339F0F80181918F01F5
:1010F0000E94BD13C150F7CFDF91CF911F910F9187
:10110000FF900C94B513FF920F931F93CF93DF932F
:10111000D62FF42E052F122F8351954CFC01C08140
:101120008C2F0E946A138D2F0E94BD138C2F81601B
:101130000E94B313CF2DD02F112359F0123018F085
:101140000E94CE1302C00E94D813888311502196AA
:10115000F3CFDF91CF911F910F91FF900C94B513B6
:101160001F93CF93DF93EC01162F80910C02809395
:10117000F03A462F46956AE883E090E00E94A00787
:10118000C351D54C1883DF91CF911F91089583519E
:10119000954CFC0180810895CF92DF92EF92FF92EF
:1011A000CF93DF93EC016A017B0120E030E0A901DD
:1011B000C701B6010E94611A87FD1BC028EB3EEFF4
:1011C0004FEF53E4C701B6010E94211C18168CF0A2
:1011D00020E030E040E053E4C701B6010E949C1CCF
:1011E0000E94191BAB0164E4CE010E94B40781E0A8
:1011F00001C080E0DF91CF91FF90EF90DF90CF9022
:10120000089564E40E940D08BC0180E090E00E9413
:10121000481B20E030E040E05CE30E949C1C089505
:101220006115710511F460E504C06130710531F498
:1012300060E70E94F2078F5F880F08958FEF08958F
:10124000CF92DF92EF92FF92CF93DF93EC016A018E
:101250007B0141E060E80E94A00741E06FEFCE0112
:101260000E94A00740E060E0CE010E94A0074091EC
:10127000E83A61E9CE010E94A00741E060E0CE01BA
:101280000E94A00740E06FEFCE010E94A00740E05F
:1012900060E8CE010E94A007C114D104E104F1046A
:1012A000A9F068EFCE010E940D08009739F0DC012B
:1012B000A70196010E94D2196B017C01A70196013A
:1012C00064E0CE010E94CD0744E001C042E060E04E
:1012D000CE01DF91CF91FF90EF90DF90CF900C94F3
:1012E000A007CF93DF93EC0141E060E00E94A007EC
:1012F00041E06FEFCE010E94A00740E060E0CE0128
:101300000E94A00740E061E9CE010E94A00741E0F1
:1013100060E0CE010E94A00740E06FEFCE01DF91B8
:10132000CF910C94A007CF92DF92EF92FF920F9390
:101330001F93CF93DF93CDB7DEB72C970FB6F894FA
:10134000DEBF0FBECDBF6C017B010E94B400709365
:10135000E73A6093E63A63E1C6010E94F2078770BC
:10136000D9F48091A0029091A102892BA1F30E944F
:10137000B4002091E63A3091E73A621B730B8091FA
:10138000A0029091A1028617970728F781E0809329
:101390009F028FEF9FEF39C0E114F10431F46EE149
:1013A000C6010E940D088C012AC02CE0AE014F5FDF
:1013B0005F4F64E1C6010E94830889818695869506
:1013C0008695F70180878B819C81982789279827AC
:1013D000978386838F819885982789279827938379
:1013E000828389859A85982789279827958384837E
:1013F0000B851C851027012710271183008341E0EE
:101400006BE0C6010E94A007C8012C960FB6F894A5
:10141000DEBF0FBECDBFDF91CF911F910F91FF9027
:10142000EF90DF90CF9008950F931F93CF93DF93AA
:10143000EC018B0141E060E80E94A00741E06FEF02
:10144000CE010E94A00740E060E0CE010E94A0070C
:101450004091E83A61E9CE010E94A00741E060E0D6
:10146000CE010E94A00740E06FEFCE010E94A007CE
:1014700040E060E8CE010E94A00741E060E0CE01BC
:101480000E94A0070E94B4007093E73A6093E63A86
:1014900060E0CE010E94F20780FF1FC08091A00291
:1014A0009091A102892BA1F30E94B4002091E63A09
:1014B0003091E73A621B730B8091A0029091A102D8
:1014C0008617970728F781E080939F028FEF9FEFA1
:1014D000DF91CF911F910F910895B801CE01DF9157
:1014E000CF911F910F910C94930980919F021092BC
:1014F0009F0208959093A1028093A0020895809185
:10150000A0029091A1020895CF92DF92EF92FF92F4
:101510001F93CF93DF93EC016B017A0141E060E808
:101520000E94A00741E06FEFCE010E94A00740E0BB
:1015300060E0CE010E94A00746E06FEFCE010E945E
:10154000A00763E8CE010E94F207482F446063E8D9
:10155000CE010E94A00747E06FEFCE010E94A007D6
:1015600041E061E8CE010E94A00741E060E8CE01C1
:101570000E94A0074BE664E9CE010E94A00740E06C
:1015800063E8CE010E94A0070E94B4007093E73A7E
:101590006093E63A63E8CE010E94F207182F8111AA
:1015A00016C08091A0029091A102892B99F30E940C
:1015B000B4002091E63A3091E73A621B730B8091B8
:1015C000A0029091A1028617970720F73BC041E047
:1015D00063E8CE010E94A00762E9CE010E94F207F3
:1015E000982F9F77F6019083881F8827881FF7011F
:1015F000808340E061E8CE010E94A00746E06FEFE3
:10160000CE010E94A00763E8CE010E94F207482F96
:101610004B7F63E8CE010E94A00741E06FEFCE014F
:101620000E94A00741E060E0CE010E94A00740E0D8
:101630006FEFCE010E94A00740E060E8CE010E945B
:10164000A00711E0812FDF91CF911F91FF90EF90C4
:10165000DF90CF900895CF93DF93EB0161E00E947C
:10166000F20784FB992790F9988383FB992790F9D7
:101670009A8382FB992790F9998386FB992790F9A1
:101680009B83881F8827881F8C83DF91CF910895C3
:101690002F923F924F925F926F927F928F929F9282
:1016A000AF92BF92CF92DF92EF92FF920F931F9370
:1016B000CF93DF9300D000D0CDB7DEB71C017E837F
:1016C0006D838A0160E070E00E94100990E0F801EB
:1016D0009183808366E4C1010E94F207282F30E0E5
:1016E0002F5F3F4F3A832983F80135832483A081FC
:1016F000B0E020E03FE24AE350E00E94D2194B0103
:101700005C01F4EF8F0EF1E09F1EA11CB11C98EE5E
:10171000C92E93E0D92EE12CF12CC501B401A7010B
:1017200096010E94B019A981BA810E94DD196983CE
:101730007A838B839C8320ED422E27E0522E612CEE
:10174000712CC501B401A30192010E94B0196981F5
:101750007A818B819C81620F731F841F951FA70163
:1017600096010E94B019F801228733874487558774
:1017700061E5C1010E940D089C01332702C0220FC0
:10178000331F9A95E2F72F5F3F4F3A832983F80181
:1017900037832683A081B0E020E03FE24AE350E0B7
:1017A0000E94D2194B015C01F4EF8F0EF1E09F1EF5
:1017B000A11CB11CC501B401A70196010E94B0197A
:1017C000A981BA810E94D21969837A838B839C8311
:1017D000C501B401A30192010E94B01969817A8107
:1017E0008B819C81620F731F841F951FA701960137
:1017F0000E94B019F80126873787408B518B60E72C
:10180000C1010E94F2078F5F880F90E0F801938377
:10181000828361E7C1010E940D089C01992702C0E3
:10182000880F991F3A95E2F70196F8019187808712
:10183000ED81FE812381222339F0F8012681378151
:10184000821B930B91878087F801A281B0E020E092
:101850003FE24AE350E00E94D2196B017C01F4EFB1
:10186000CF0EF1E0DF1EE11CF11C88EE882E83E034
:10187000982EA12CB12CC701B601A50194010E949C
:10188000B019F801A085B1850E94D2192B013C0145
:10189000C701B60120ED37E040E050E00E94B019EA
:1018A000C301B201620F731F841F951FA50194012C
:1018B0000E94B019F801228B338B448B558B2696EE
:1018C0000FB6F894DEBF0FBECDBFDF91CF911F9151
:1018D0000F91FF90EF90DF90CF90BF90AF909F90CF
:1018E0008F907F906F905F904F903F902F900895D2
:1018F0002F923F924F925F926F927F928F929F9220
:10190000AF92BF92DF92EF92FF920F931F93CF930C
:10191000DF93CDB7DEB76F970FB6F894DEBF0FBE7B
:10192000CDBF40322EE452076105710508F4B9C0FD
:101930004A015B011C01BE01695E7F4F0E942B0BB7
:10194000AE014F5F5F4FBE01695E7F4FC1010E94D4
:10195000480B8F89882349F00B851C852D853E8592
:101960000A5C144F2F4F3F4F04C008EE18E020E0F0
:1019700030E0898D882369F08B859C85AD85BE8597
:101980008E549D4FAF4FBF4F880F991FAA1FBB1F8B
:101990000BC0888D882361F08B859C85AD85BE85C5
:1019A0008C569D4FAF4FBF4F080F191F2A1F3B1F6B
:1019B000DA8CDD2061F08F859889A989BA898C56E7
:1019C0009D4FAF4FBF4F080F191F2A1F3B1F8B8D15
:1019D000882309F464C0780189018AEDE81A8DEF43
:1019E000F80A0F4F1F4F8E149F04A006B10608F48B
:1019F00058C0AB81B0E020E03FE24AE350E00E94F3
:101A0000D2192B013C01A4EF4A0EA1E05A1E611C21
:101A1000711CA50194012E193F09400B510BA8EE32
:101A2000B3E00E94D2196C8F7D8F8E8F9F8FC30180
:101A3000B20120ED37E040E050E00E94B0198C8DFB
:101A40009D8DAE8DBF8D820F931FA41FB51F8C8FF0
:101A50009D8FAE8FBF8FC301B20128EE33E040E00F
:101A600050E00E94B0196C8D7D8D8E8D9F8D0E94EF
:101A7000B019C901DD2021F08F819885820F931F55
:101A80000E947E07AC0161E7C1010E94B407809209
:101A9000E93A9092EA3AA092EB3AB092EC3A81E0BD
:101AA00001C080E06F960FB6F894DEBF0FBECDBFC9
:101AB000DF91CF911F910F91FF90EF90DF90BF903A
:101AC000AF909F908F907F906F905F904F903F90DE
:101AD0002F9008950F931F93CF93DF93CDB7DEB769
:101AE0006B970FB6F894DEBF0FBECDBF8C01BE0161
:101AF000695E7F4F0E942B0BAE014F5F5F4FBE01AF
:101B0000695E7F4FC8010E94480B8F89882359F076
:101B10008B859C85AD85BE85BC01CD016C57724F10
:101B20008F4F9F4F04C066E37BE080E090E0298DFB
:101B3000222369F00B851C852D853E850E541D4F93
:101B40002F4F3F4F000F111F221F331F0BC0288D37
:101B5000222361F00B851C852D853E850C561D4F7B
:101B60002F4F3F4F600F711F821F931F2A8D22231B
:101B700061F00F85188929893A890C561D4F2F4F1E
:101B80003F4F600F711F821F931F2B8D222361F027
:101B90000B891C892D893E890A5D1D4F2F4F3F4FB0
:101BA000600F711F821F931F6093E93A7093EA3AA6
:101BB0008093EB3A9093EC3A6B960FB6F894DEBFB5
:101BC0000FBECDBFDF91CF911F910F9108951F934D
:101BD000CF93DF93EC01462F416060E00E94A007A5
:101BE0000E94B4007093E73A6093E63A63E1CE0155
:101BF0000E94F207182F1770B1F48091A002909103
:101C0000A102892B99F30E94B4002091E63A309109
:101C1000E73A621B730B8091A0029091A102861794
:101C2000970720F70BC041E06BE0CE010E94A007B0
:101C300040E060E0CE010E94A00711E0812FDF911B
:101C4000CF911F9108950F931F93CF93DF93CDB73B
:101C5000DEB728970FB6F894DEBF0FBECDBF8C015C
:101C6000662349F069E80E94F207482F416069E85D
:101C7000C8010E94A00740E068E8C8010E94A007D0
:101C800041E060E8C8010E94A00741E06FEFC80191
:101C90000E94A00740E060E0C8010E94A00761E93F
:101CA000C8010E94F2078093E83A41E060E0C80171
:101CB0000E94A00740E06FEFC8010E94A00740E02B
:101CC00060E8C8010E94A00760E6C8010E94F20710
:101CD000482F426160E6C8010E94A00740E250E040
:101CE00064E4C8010E94B4074FEF61E0C8010E949C
:101CF000A007AE01495F5F4FBE01685F7F4FC8011B
:101D00000E94840A811102C080E037C226E0AE0141
:101D10004F5F5F4F60EBC8010E94830841E06FEFA7
:101D2000C8010E94A00740E06FE4C8010E94A0071C
:101D30004CE26EE4C8010E94A00740E06FEFC801CA
:101D40000E94A00744EB66EBC8010E94A0078F81A8
:101D5000811102C040E001C04CE0A88580E090E025
:101D600061E070E0282F269526952695582F57700C
:101D7000E1E0F0E0EC0FFD1FE20FF11D841710F021
:101D8000A9130AC09B0101C0220F5A95EAF72095BA
:101D900030812323208309C0208130E002C03595A3
:101DA00027955A95E2F720FD9F5F8F5F8033D1F62C
:101DB00026E0AE014F5F5F4F60EBC8010E945F08F5
:101DC00041E06FEFC8010E94A00740E060E0C80159
:101DD0000E94A00740E06FEFC8010E94A00740E00A
:101DE00069E0C8010E94A00740E060E1C8010E94CC
:101DF000A00740E061E1C8010E94A00741E064E261
:101E0000C8010E94A0074FEF65E2C8010E94A00729
:101E100040E065E7C8010E94A00741E06FEFC801FC
:101E20000E94A0074CE26EE4C8010E94A00740E0B7
:101E300068E4C8010E94A00740E260E3C8010E9474
:101E4000A00740E06FEFC8010E94A00749E060E3EF
:101E5000C8010E94A00740E064E5C8010E94A007F5
:101E600044E061E3C8010E94A00743E062E3C801C7
:101E70000E94A00743E860E4C8010E94A00745E271
:101E800066E4C8010E94A00740E060E6C8010E9425
:101E9000A00740E067E2C8010E94A00746E060E5B5
:101EA000C8010E94A00740E061E5C8010E94A007A8
:101EB00046E962E5C8010E94A00748E066E5C8015E
:101EC0000E94A00740E367E5C8010E94A00740E028
:101ED00061E6C8010E94A00740E062E6C8010E94D6
:101EE000A00740E064E6C8010E94A00740E065E664
:101EF000C8010E94A00740EA66E6C8010E94A00748
:101F000041E06FEFC8010E94A00742E362E2C8010E
:101F10000E94A00744E167E4C8010E94A0074FEFB8
:101F200069E4C8010E94A00740E06AE4C8010E9479
:101F3000A00740E06FEFC8010E94A0074AE06AE7EF
:101F4000C8010E94A00740E06BE7C8010E94A007FB
:101F500041E268E7C8010E94A00741E06FEFC801B5
:101F60000E94A00744E363E2C8010E94A00740E08A
:101F700062E4C8010E94A0074FEF64E4C8010E9418
:101F8000A00746E265E4C8010E94A00745E066E4B8
:101F9000C8010E94A00740E460E4C8010E94A007B5
:101FA00046E06EE0C8010E94A0074AE160E2C80175
:101FB0000E94A00740E463E4C8010E94A00740E03B
:101FC0006FEFC8010E94A00743E064E3C8010E94CC
:101FD000A00744E465E3C8010E94A00741E06FEF59
:101FE000C8010E94A00744E061E3C8010E94A00765
:101FF00049E06BE4C8010E94A00745E06CE4C80119
:102000000E94A00744E06DE4C8010E94A00740E0E0
:102010006FEFC8010E94A00740E064E4C8010E947D
:10202000A00740E265E4C8010E94A00748E067E419
:10203000C8010E94A00748E268E4C8010E94A00706
:1020400040E067E6C8010E94A00744E060E7C801DD
:102050000E94A00741E061E7C8010E94A0074EEF7F
:1020600062E7C8010E94A00740E066E7C8010E943D
:10207000A00740E067E7C8010E94A00741E06FEFBA
:10208000C8010E94A00741E06DE0C8010E94A007BE
:1020900040E06FEFC8010E94A00741E060E8C8017E
:1020A0000E94A00748EF61E0C8010E94A00741E03C
:1020B0006FEFC8010E94A00741E06EE8C8010E94CE
:1020C000A00741E060E0C8010E94A00740E06FEF78
:1020D000C8010E94A00740E060E8C8010E94A00774
:1020E00044E06AE0C8010E94A00764E8C8010E94B9
:1020F000F207482F4F7E64E8C8010E94A00741E024
:102100006BE0C8010E94A007C8010E946A0D60939D
:10211000E93A7093EA3A8093EB3A9093EC3A48EEBE
:1021200061E0C8010E94A0074091E93A5091EA3A63
:102130006091EB3A7091EC3AC8010E94780C41E052
:1021400061E0C8010E94A00760E4C8010E94E70D99
:10215000882309F4D9CD42E061E0C8010E94A007BC
:1021600060E0C8010E94E70D882309F4CDCD48EE58
:1021700061E0C8010E94A00781E028960FB6F8949C
:10218000DEBF0FBECDBFDF91CF911F910F9108959C
:102190008F929F92AF92BF92CF92DF92EF92FF9277
:1021A0000F931F93CF93DF93CDB7DEB76B970FB627
:1021B000F894DEBF0FBECDBF8C016B01F42EE42E70
:1021C000E694EA94BE01695E7F4F0E942B0BAE013C
:1021D0004F5F5F4FBE01695E7F4FC8010E94480B91
:1021E000C114D10409F07AC02EE0F21679F02F154F
:1021F00028F08CE0F8124AC148E10BC020E1F21649
:1022000039F082E1F81242C140E503C040E301C069
:1022100040E467E5C8010E94A00748E066E5C80100
:102220000E94A0074E2D60E5C8010E94A007AF2DB7
:10223000B0E020E03FE24AE350E00E94D2196B0197
:102240007C0124EFC20E21E0D21EE11CF11CC7016B
:10225000B60128EE33E040E050E00E94B019490199
:102260005A01C701B60120ED37E040E050E00E947E
:10227000B01969017A012F85388949895A89A8EEF0
:10228000B3E00E94D2196C0D7D1D8E1D9F1DA5010E
:1022900094010E94B019C9010E947E07AC0161E55A
:1022A000C8010E94B4072B853C854D855E85A8EE4C
:1022B000B3E00E94D2196C0D7D1D8E1D9F1DA501DE
:1022C00094010E94B0194FEF213081E0380708F4E3
:1022D000420F66E4C8010E94A007B8C0CA94CD2886
:1022E00009F0D4C08AE0F816B9F18F15F0F028E0B3
:1022F000F212CCC040E168E4C8010E94A00748E0A7
:1023000067E4C8010E94A00742E062E3C8010E949E
:10231000A0074CE060E3C8010E94A00741E06FEF16
:10232000C8010E94A00740E342C08CE0F81629F1E2
:102330002EE0F212ABC048E468E4C8010E94A00796
:1023400048E067E4C8010E94A00743E062E3C801D7
:102350000E94A00747E021C048E268E4C8010E944B
:10236000A00748E067E4C8010E94A00743E062E3D9
:10237000C8010E94A00749E010C048E368E4C80112
:102380000E94A00748E067E4C8010E94A00743E05C
:1023900062E3C8010E94A00748E060E3C8010E9410
:1023A000A00741E06FEFC8010E94A00740E260E390
:1023B000C8010E94A00740E06FEFC8010E94A0077B
:1023C0004E2D60E7C8010E94A007AF2DB0E020E0CD
:1023D0003FE24AE350E00E94D2196B017C0124EFF6
:1023E000C20E21E0D21EE11CF11C2B893C894D89D3
:1023F0005E89A8EEB3E00E94D2194B015C01C701CF
:10240000B60120ED37E040E050E00E94B019820EA6
:10241000931EA41EB51EC701B60128EE33E040E0AE
:1024200050E00E94B019C501B4010E94B019C90161
:102430006A8D662321F08F819885820F931F0E94F9
:102440007E07AC0161E7C8010E94B4074091E93AF8
:102450005091EA3A6091EB3A7091EC3AC8010E94CF
:10246000780C61E0C8010E94F207F82E42E061E0BA
:10247000C8010E94A00760E0C8010E94E70D4F2D2F
:1024800061E0C8010E94A00781E001C080E06B9676
:102490000FB6F894DEBF0FBECDBFDF91CF911F9175
:1024A0000F91FF90EF90DF90CF90BF90AF909F90F3
:1024B0008F9008951F920F920FB60F9211240BB6B2
:1024C0000F922F933F934F935F938F939F93EF932D
:1024D000FF932091C0003091C60028718091A40222
:1024E00090E001968F7799274091A30250E08417DE
:1024F000950739F08093A402FC01E955FD4F308324
:1025000001C022E02093A202FF91EF919F918F9151
:102510005F914F913F912F910F900BBE0F900FBE87
:102520000F901F9018951F920F920FB60F921124C3
:102530000BB60F928F939F93EF93FF939091A60208
:102540008091A502981779F08091A50290E00196FC
:102550008F7799278093A502FC01E95DFC4F80816C
:102560008093C60005C08091C1008F7D8093C1001B
:10257000FF91EF919F918F910F900BBE0F900FBE27
:102580000F901F901895F8941092A6021092A50231
:102590001092A4021092A302789497FF04C022E044
:1025A0002093C0009F779093C5008093C40088E972
:1025B0008093C10086E08093C2000895F8949091C2
:1025C000A4028091A302981304C0789480E091E063
:1025D000089578948091A30290E001968F779927CF
:1025E0008093A302FC01E955FD4F20818091A20256
:1025F00090E0982F8827820F911D0895F89490916C
:10260000A4028091A302981304C0789480E091E022
:1026100008957894E091A302F0E03196EF77FF27D8
:10262000E955FD4F20818091A20290E0982F8827E4
:10263000820F911D08952091A60230E02F5F3F4F39
:102640002F7733274091A50250E024173507D1F3A7
:10265000F901E95DFC4F80832093A6028091C100BF
:1026600080628093C1000895CF93DF93EC0189913C
:10267000882319F00E941B13FACFDF91CF910895A0
:10268000CF93DF93FC018491EF012196882321F001
:102690000E941B13FE01F7CFDF91CF910895F894AC
:1026A0008091A4022091A302789490E080589F4FDB
:1026B000821B91098F7799270895F8948091A3023E
:1026C0008093A402789408951092B90080EC8093CE
:1026D000B800089594EA9093BC009091BC0097FFD5
:1026E000FCCF9091B900987F983021F0903111F093
:1026F00081E008958093BB0084E88093BC008091C2
:10270000BC0087FFFCCF8091B900887F883111F031
:10271000803471F780E0089524EA34E844E9209396
:10272000BC009091BC0097FFFCCF9091B900987FBE
:10273000983011F0903199F78093BB003093BC0032
:102740009091BC0097FFFCCF9091B900987F903298
:1027500011F0983539F44093BC009091BC0094FD81
:10276000FCCFDDCF08950C946A1384E98093BC00FC
:102770008091BC0084FDFCCF08958093BB0084E869
:102780008093BC008091BC0087FFFCCF9091B90082
:10279000987F81E0983209F480E0089584EC80937A
:1027A000BC008091BC0087FFFCCF8091BB000895E6
:1027B00084E88093BC008091BC0087FFFCCF8091AF
:1027C000BB000895CF93DF93D62FC42F805C0E9467
:1027D0008C138D2F0E94BD138C2F0E94BD13DF918F
:1027E000CF910C94B513CF93DF930E94641383E0D1
:1027F0008A95F1F70000CDEDDAE318828FEF898337
:102800008A831B821C824981888160E00E94E213D6
:102810004A81888161E0DF91CF910C94E21382308C
:1028200060F495E0899FF0011124E352F54C618337
:102830004181808160E00C94E2130895823060F45D
:1028400095E0899FF0011124E352F54C62834281A7
:10285000808161E00C94E2130895823018F5A82F6E
:10286000B0E095E0899FF0011124E352F54C2181FD
:1028700081E090E001C0880F6A95EAF7411103C03A
:102880008095822301C0822B95E09A9FF0019B9F47
:10289000F00D1124E352F54C81834181808160E089
:1028A0000C94E2130895823018F5A82FB0E095E05B
:1028B000899FF0011124E352F54C228181E090E0E0
:1028C00001C0880F6A95EAF7411103C08095822301
:1028D00001C0822B95E09A9FF0019B9FF00D11247F
:1028E000E352F54C82834281808161E00C94E213D3
:1028F0000895823060F495E0899FF0011124E3523D
:10290000F54C63834381808162E10C94E213089566
:10291000823060F495E0899FF0011124E352F54C78
:1029200064834481808163E10C94E21308951F93D2
:10293000CF93DF93162FD42FC52F805C0E948C136A
:10294000812F0E94BD138D2F0E94BD138C2F0E94DA
:10295000BD13DF91CF911F910C94B513CF93DF93EB
:10296000C82FD62F80E48C0F0E948C138D2F0E94CD
:10297000BD1381E48C0F0E94B3130E94D813C82F9B
:102980000E94B5138C2FDF91CF9108950F931F9361
:10299000CF93DF93823060F5142F062FC82FD0E03D
:1029A00095E0899FF0011124E352F54C808164E1A8
:1029B0000E94AE1421E030E001C0220F0A95EAF730
:1029C000111103C02095282301C0282B85E08C9F7E
:1029D000F0018D9FF00D1124E352F54C23834381C8
:1029E000808162E1DF91CF911F910F910C94E213EE
:1029F000DF91CF911F910F9108950F931F93CF9364
:102A0000DF93823060F5142F062FC82FD0E095E0B9
:102A1000899FF0011124E352F54C808165E10E9409
:102A2000AE1421E030E001C0220F0A95EAF711113F
:102A300003C02095282301C0282B85E08C9FF0013E
:102A40008D9FF00D1124E352F54C24834481808145
:102A500063E1DF91CF911F910F910C94E213DF910D
:102A6000CF911F910F910895CF93823098F4C62F84
:102A700095E0899FF0011124E352F54C808162E1D9
:102A80000E94AE1490E002C095958795CA95E2F732
:102A9000817001C080E0CF910895CF93823098F487
:102AA000C62F95E0899FF0011124E352F54C8081F7
:102AB00063E10E94AE1490E002C095958795CA9597
:102AC000E2F7817001C080E0CF910895823050F428
:102AD00095E0899FF0011124E352F54C808162E179
:102AE0000C94AE1480E00895823050F495E0899FF4
:102AF000F0011124E352F54C808163E10C94AE1493
:102B000080E00895FF920F931F93CF93DF9382305D
:102B100068F5122F042FF62E95E0899FE00111240D
:102B2000C352D54C88816AE00E94AE14E1E0F0E027
:102B3000BF0101C0660FFA94EAF78F7B862BBF01B5
:102B400001C0660F0A95EAF78B7F682B01C0EE0F74
:102B50001A95EAF76D7F462F4E2B88816AE0DF9148
:102B6000CF911F910F91FF900C94E213DF91CF91C1
:102B70001F910F91FF900895FF920F931F93CF9392
:102B8000DF93823068F5122F042FF62E95E0899F8F
:102B9000E0011124C352D54C88816BE00E94AE1431
:102BA000E1E0F0E0BF0101C0660FFA94EAF78F7B25
:102BB000862BBF0101C0660F0A95EAF78B7F682B51
:102BC00001C0EE0F1A95EAF76D7F462F4E2B8881D4
:102BD0006BE0DF91CF911F910F91FF900C94E21366
:102BE000DF91CF911F910F91FF900895BF92CF92E7
:102BF000DF92EF92FF920F931F93CF93DF93823078
:102C000008F069C0D02EB22E142FD62FE82EF12C4A
:102C100025E0829FF0011124E352F54C808168E0A9
:102C20000E94AE1441E050E0FA0102C0EE0FFF1F17
:102C3000DA95E2F7EF01CE2EC094112319F04C2D56
:102C4000482302C04E2F482B85E08E9D80018F9D2A
:102C5000100D11240352154CF801808168E00E9488
:102C6000E213F801808166E00E94AE14BB2019F0E7
:102C70004C2D482302C04C2F482B85E08E9D8001AF
:102C80008F9D100D11240352154CF801808166E0D0
:102C90000E94E213F801808164E00E94AE14D1101A
:102CA00003C04C2D482302C04C2F482B85E08E9D3D
:102CB000F0018F9DF00D1124E352F54C808164E00A
:102CC000DF91CF911F910F91FF90EF90DF90CF9008
:102CD000BF900C94E213DF91CF911F910F91FF9061
:102CE000EF90DF90CF90BF900895BF92CF92DF9288
:102CF000EF92FF920F931F93CF93DF93823008F0F0
:102D000069C0D02EB22E142FD62FE82EF12C25E03C
:102D1000829FF0011124E352F54C808169E00E940A
:102D2000AE1441E050E0FA0102C0EE0FFF1FDA9549
:102D3000E2F7EF01CE2EC094112319F04C2D482359
:102D400002C04E2F482B85E08E9D80018F9D100D77
:102D500011240352154CF801808169E00E94E213AE
:102D6000F801808167E00E94AE14BB2019F04C2D61
:102D7000482302C04C2F482B85E08E9D80018F9DFB
:102D8000100D11240352154CF801808167E00E9458
:102D9000E213F801808165E00E94AE14D11003C0F7
:102DA0004C2D482302C04C2F482B85E08E9DF0010E
:102DB0008F9DF00D1124E352F54C808165E0DF9189
:102DC000CF911F910F91FF90EF90DF90CF90BF9028
:102DD0000C94E213DF91CF911F910F91FF90EF9030
:102DE000DF90CF90BF900895CF93DF9300D000D0B5
:102DF000CDB7DEB787E690E00E94C3120E945D1354
:102E00000E94F8010E9404010E9464130E947B0743
:102E10000E94B60161E080E090E00E94230E61E034
:102E200081E090E00E94230E61E082E090E00E9449
:102E3000230E0E94F3136FEF80E40E940F1460E0F2
:102E400080E40E941E1460E080E40E94881440E048
:102E500050E0BA0180E090E00E94200940E050E09C
:102E6000BA0181E090E00E9420090E94F80240E04F
:102E700050E0BA0182E090E00E9420098AE280934B
:102E80009C1B1092502110924F21109252211092AF
:102E900051210E9419030E9419030E94A6050E9455
:102EA00019030E94AA04679BFECF8EE292E00E9463
:102EB000341302E716E33CE9E32E3FE1F32E42E24E
:102EC000C42E42E2D42E5BEEA52E50E2B52E65ED67
:102ED000462E60E2562E8AEE92E29A83898379EA40
:102EE000272E77E0372E612C712C8091A7039091CB
:102EF000A803861597050CF4A2C01E821D82812CA2
:102F0000912C5C824B82F201808191818816990616
:102F1000C4F4E981FA818D819E81E80FF91F6081F7
:102F20007181FC01E20DF31D808191810E940504F5
:102F30009FEF891A990AED81FE813296FE83ED8317
:102F4000E2CF0197F4E6F89FA001F99F500D1124FC
:102F50009A0126513D4D4755584FF80162817381C2
:102F6000808191810E948406F70140815181F2E0C5
:102F7000EF0EF11CF60120813181F2E0CF0ED11C61
:102F8000F50180819181F2E0AF0EB11C5F934F9308
:102F90003F932F939F938F9388E392E09F938F9318
:102FA00087E39BE19F938F930E941E1D87E39BE124
:102FB0000E9434130E941501FFEF23ED40E3F1500E
:102FC00020404040E1F700C000000E941B0162E089
:102FD000460E511CEB81FC81808191810197F2E3C7
:102FE000F69D9001F79D300D1124820F931F880FDD
:102FF000991FFC01E755F84F208131813093502112
:1030000020934F21FC01E651FD4D808191819093E9
:103010005221809351212FEF621A720A0C5F1F4FC9
:1030200089819A818C599F4F9A83898394E6290ECE
:10303000311C0FB6F894DEBF0FBECDBF56CFFFEFE9
:10304000F09328012BE920938800F0932C01209322
:103050008A004FEF63EC89E0415060408040E1F727
:1030600000C000000E94FB030E942A078091331BCE
:103070009091341B892BB9F49FEF90932801EBE9D1
:10308000E093880090932C01E0938A00FFEF23ECFB
:1030900049E0F15020404040E1F700C000000E94AC
:1030A000FB030E9451030E942A078091331B9091D9
:1030B000341B883F9105B9F49FEF909328018BE969
:1030C0008093880090932C0180938A006FEF83ECAB
:1030D00099E0615080409040E1F700C000000E94FC
:1030E000FB030E94A403EFEFE0932801FBE9F093B8
:1030F0008800E0932C01F0938A002FEF43EC69E005
:10310000215040406040E1F700C000000E94FB03F6
:1031100087E492E00E9434130E942D018FEF93ED1B
:10312000E0E381509040E040E1F700C000000E94E1
:1031300033010E94F703FFEFF09328012BE920935E
:103140008800F0932C0120938A004FEF63EC89E014
:10315000415060408040E1F700C000000E94FB0346
:103160000E94A4030E942A0781E592E04897A9F4EF
:103170009FEF90932801EBE9E093880090932C0156
:10318000E0938A00FFEF23EC49E0F15020404040FB
:10319000E1F700C000000E94FB030E9451030E945F
:1031A000CD0681E592E0873E9105A9F49FEF9093CB
:1031B00028018BE98093880090932C0180938A00EA
:1031C0006FEF83EC99E0615080409040E1F700C0E0
:1031D00000000E94FB030E9451030E942A07809175
:1031E000331B9091341B883F9105B9F49FEF909366
:1031F00028018BE98093880090932C0180938A00AA
:10320000EFEFF3EC29E0E150F0402040E1F700C09F
:1032100000000E94FB030E94A4034FEF409328018B
:103220006BE96093880040932C0160938A008FEFD4
:1032300093ECE9E081509040E040E1F700C00000ED
:103240000E94FB0384E592E00E9434130E942D014A
:10325000FFEF23ED40E3F15020404040E1F700C094
:1032600000000E9433010E94F7036FEF6093280172
:103270008BE98093880060932C0180938A009FEFF4
:10328000E3ECF9E09150E040F040E1F700C00000CD
:103290000E94FB030E94A4030E942A0781E592E09A
:1032A0004897A9F42FEF209328014BE94093880019
:1032B00020932C0140938A006FEF83EC99E06150DA
:1032C00080409040E1F700C000000E94FB030E9494
:1032D00051030E94CD068091331B9091341B883F8F
:1032E0009105B9F49FEF909328018BE980938800B2
:1032F00090932C0180938A00EFEFF3EC29E0E150EA
:10330000F0402040E1F700C000000E94FB030E9453
:10331000A4039FEF909328018BE9809388009093FA
:103320002C0180938A004FEF63EC89E041506040AC
:103330008040E1F700C000000E94FB0381E692E0BC
:103340000E9434130E942D019FEFE3EDF0E39150B2
:10335000E040F040E1F700C000000E943301FFCFE1
:10336000A1E21A2EAA1BBB1BFD010DC0AA1FBB1F89
:10337000EE1FFF1FA217B307E407F50720F0A21BFB
:10338000B30BE40BF50B661F771F881F991F1A9468
:1033900069F760957095809590959B01AC01BD0192
:1033A000CF0108950E94E519A59F900DB49F900D3F
:1033B000A49F800D911D11240895B7FF0C94D2197C
:1033C0000E94D219821B930B0895A29FB001B39F54
:1033D000C001A39F700D811D1124911DB29F700D1E
:1033E000811D1124911D08955058BB27AA270E94C2
:1033F0000C1A0C94E71B0E94D91B38F00E94E01BAA
:1034000020F039F49F3F19F426F40C94AF1B0EF40E
:10341000E095E7FB0C94A91BE92F0E94F81B58F3D9
:10342000BA17620773078407950720F079F4A6F5A9
:103430000C941A1C0EF4E0950B2EBA2FA02D0B0144
:10344000B90190010C01CA01A0011124FF27591BE9
:1034500099F0593F50F4503E68F11A16F040A22FEF
:10346000232F342F4427585FF3CF46953795279560
:10347000A795F0405395C9F77EF41F16BA0B620B5F
:10348000730B840BBAF09150A1F0FF0FBB1F661FA6
:10349000771F881FC2F70EC0BA0F621F731F841FE9
:1034A00048F4879577956795B795F7959E3F08F00F
:1034B000B0CF9395880F08F09927EE0F97958795D1
:1034C00008950E94851B08F481E008950E947A1AED
:1034D0000C94E71B0E94E01B58F00E94D91B40F09F
:1034E00029F45F3F29F00C94A91B51110C941B1C6B
:1034F0000C94AF1B0E94F81B68F39923B1F355237A
:1035000091F3951B550BBB27AA27621773078407F6
:1035100038F09F5F5F4F220F331F441FAA1FA9F38C
:1035200035D00E2E3AF0E0E832D091505040E6957A
:10353000001CCAF72BD0FE2F29D0660F771F881FDB
:10354000BB1F261737074807AB07B0E809F0BB0BCE
:10355000802DBF01FF2793585F4F3AF09E3F5105E2
:1035600078F00C94A91B0C941B1C5F3FE4F3983E6D
:10357000D4F3869577956795B795F7959F5FC9F7CB
:10358000880F911D9695879597F90895E1E0660F4C
:10359000771F881FBB1F621773078407BA0720F0C5
:1035A000621B730B840BBA0BEE1F88F7E09508952E
:1035B00029F416F00C94A91B0C941A1C0C94AF1B44
:1035C0000E94001CA8F39638A0F707F80F92E89421
:1035D0002BE33AEA48EB5FE70E94B21C0F920F928E
:1035E0000F924DB75EB70F920E94681CE4EEF0E0B8
:1035F0000E94B21B4F915F91EF91FF91E595EE1FF5
:10360000FF1F49F0FE57E0684427EE0F441FFA956C
:10361000E1F74195550B0E94321C0F9007FE0C9468
:10362000261C08950E94191B6894B1110C941B1C50
:1036300008950E94001C88F09F5798F0B92F992791
:10364000B751B0F0E1F0660F771F881F991F1AF08D
:10365000BA95C9F714C0B13091F00E941A1CB1E0BC
:1036600008950C941A1C672F782F8827B85F39F0BB
:10367000B93FCCF3869577956795B395D9F73EF426
:1036800090958095709561957F4F8F4F9F4F0895CE
:10369000E89409C097FB3EF49095809570956195EC
:1036A0007F4F8F4F9F4F9923A9F0F92F96E9BB27A2
:1036B0009395F695879577956795B795F111F8CF1E
:1036C000FAF4BB0F11F460FF1BC06F5F7F4F8F4F89
:1036D0009F4F16C0882311F096E911C0772321F07F
:1036E0009EE8872F762F05C0662371F096E8862F17
:1036F00070E060E02AF09A95660F771F881FDAF76E
:10370000880F9695879597F90895990F0008550F9A
:10371000AA0BE0E8FEEF16161706E807F907C0F057
:1037200012161306E407F50798F0621B730B840B5F
:10373000950B39F40A2661F0232B242B252B21F439
:1037400008950A2609F4A140A6958FEF811D811DD9
:10375000089597F99F6780E870E060E008959FEF13
:1037600080EC0895DF93CF931F930F93FF92EF9216
:10377000DF927B018C01689406C0DA2EEF010E9473
:10378000AF1CFE01E894A591259135914591559185
:10379000A6F3EF010E940C1AFE019701A801DA942A
:1037A00069F7DF90EF90FF900F911F91CF91DF911C
:1037B000089500240A941616170618060906089597
:1037C00000240A9412161306140605060895092EFD
:1037D0000394000C11F4882352F0BB0F40F4BF2B6C
:1037E00011F460FF04C06F5F7F4F8F4F9F4F0895AC
:1037F00057FD9058440F551F59F05F3F71F04795A2
:10380000880F97FB991F61F09F3F79F08795089586
:10381000121613061406551FF2CF4695F1DF08C0A5
:10382000161617061806991FF1CF869571056105C2
:1038300008940895E894BB2766277727CB0197F96A
:1038400008950E94851B08F48FEF08959B01AC0139
:1038500060E070E080E89FE30C94661A0C94A91B6A
:103860000C94091D0E94001CD8F39923C9F3940FEE
:10387000511DA3F39150504094F059F0882332F039
:10388000660F771F881F91505040C1F79E3F51052A
:103890002CF7880F911D9695879597F908955F3FAE
:1038A000ACF0983E9CF0BB27869577956795B795C9
:1038B00008F4B1609395C1F7BB0F58F711F460FF9E
:1038C000E8CF6F5F7F4F8F4F9F4FE3CF0C941B1C50
:1038D000FA01DC01AA0FBB1F9B01AC01BF5728F402
:1038E000222733274427507820C0B75190F4AB2FBC
:1038F0000024469537952795011CA395D2F3002007
:1039000071F0220F331F441FB395DAF30ED00C94DD
:10391000F41961307105A0E88A07B94630F49B01BB
:10392000AC016627772788279078309621F020838E
:1039300031834283538308950E94AF1C0C94E71B8C
:103940000E94D91B38F00E94E01B20F0952311F053
:103950000C94A91B0C94AF1B11240C941B1C0E94EB
:10396000F81B70F3959FC1F3950F50E0551F629FB0
:10397000F001729FBB27F00DB11D639FAA27F00DC8
:10398000B11DAA1F649F6627B00DA11D661F829FEF
:103990002227B00DA11D621F739FB00DA11D621FD4
:1039A000839FA00D611D221F749F3327A00D611DF1
:1039B000231F849F600D211D822F762F6A2F1124D3
:1039C0009F5750409AF0F1F088234AF0EE0FFF1F06
:1039D000BB1F661F771F881F91505040A9F79E3F5D
:1039E000510580F00C94A91B0C941B1C5F3FE4F361
:1039F000983ED4F3869577956795B795F795E795B3
:103A00009F5FC1F7FE2B880F911D9695879597F9BB
:103A100008959F3F31F0915020F4879577956795F1
:103A2000B795880F911D9695879597F90895FB0195
:103A3000DC0101900D920020E1F708950F931F9390
:103A4000CF93DF93CDB7DEB72E970FB6F894DEBFD6
:103A50000FBECDBF0E891F8986E08C831A83098330
:103A60008FEF9FE79E838D83AE01465E5F4F688D2B
:103A7000798DCE0101960E944D1DEF81F885E00FF2
:103A8000F11F10822E960FB6F894DEBF0FBECDBF89
:103A9000DF91CF911F910F9108952F923F924F92F6
:103AA0005F926F927F928F929F92AF92BF92CF92CE
:103AB000DF92EF92FF920F931F93CF93DF93CDB7D7
:103AC000DEB72B970FB6F894DEBF0FBECDBF6C01EB
:103AD0007B018A01FC0117821682838181FFCCC1A0
:103AE000CE0101963C01F6019381F70193FD85918A
:103AF00093FF81917F01882309F4BAC1853239F49B
:103B000093FD859193FF81917F01853229F4B60160
:103B100090E00E946D1FE7CF912C212C312CFFE10A
:103B2000F315D8F08B3279F038F4803279F08332A3
:103B3000A1F4232D20611DC08D3261F0803369F422
:103B4000232D216016C0832D8260382EE32DE46082
:103B50003E2E2AC0F32DF8601DC037FC2DC020ED8D
:103B6000280F2A3040F08E32B9F436FC81C1232D63
:103B70002064322E19C036FE06C08AE0989E200DC1
:103B80001124922E11C0EAE02E9E200D1124222E27
:103B9000F32DF0623F2E08C08C3621F4832D80680F
:103BA000382E02C0883641F4F70193FD859193FFCA
:103BB00081917F018111B3CF982F9F7D95549330D0
:103BC00028F40C5F1F4F9FE399830DC0833631F0BB
:103BD000833771F0833509F059C021C0F801808125
:103BE00089830E5F1F4F88248394912C530113C047
:103BF0002801F2E04F0E511CF801A080B18036FE82
:103C000003C0692D70E002C06FEF7FEFC5010E9415
:103C1000621F4C018201F32DFF773F2E16C0280151
:103C200022E0420E511CF801A080B18036FE03C094
:103C3000692D70E002C06FEF7FEFC5010E94571F32
:103C40004C01F32DF0683F2E820133FC1BC0822D06
:103C500090E088169906B0F4B60180E290E00E94E8
:103C60006D1F2A94F4CFF50137FC859137FE8191C1
:103C70005F01B60190E00E946D1F21102A9421E09F
:103C8000821A91088114910471F7E8C0843611F00A
:103C9000893641F5F80137FE07C060817181828164
:103CA00093810C5F1F4F08C060817181072E000C4B
:103CB000880B990B0E5F1F4FF32DFF763F2E97FF5A
:103CC00009C090958095709561957F4F8F4F9F4F5C
:103CD000F0683F2E2AE030E0A3010E94A91F882E41
:103CE000861845C0853731F4232D2F7EB22E2AE069
:103CF00030E025C0932D997FB92E8F36C1F018F48E
:103D0000883579F0B5C0803719F0883721F0B0C018
:103D1000E92FE061BE2EB4FE0DC0FB2DF460BF2E76
:103D200009C034FE0AC0292F2660B22E06C028E042
:103D300030E005C020E130E002C020E132E0F801CF
:103D4000B7FE07C060817181828193810C5F1F4F34
:103D500006C06081718180E090E00E5F1F4FA3017B
:103D60000E94A91F882E8618FB2DFF773F2E36FE56
:103D70000DC0232D2E7FA22E891458F434FE0BC0C3
:103D800032FC09C0832D8E7EA82E05C0B82CA32C32
:103D900003C0B82C01C0B92CA4FE0FC0FE01E80D71
:103DA000F11D8081803321F49A2D997EA92E09C0BE
:103DB000A2FE06C0B394B39404C08A2D867809F09D
:103DC000B394A3FC11C0A0FE06C0B21488F4280C62
:103DD000922C9B180EC0B21460F4B60180E290E001
:103DE0000E946D1FB394F7CFB21418F42B1802C0C1
:103DF000982C212CA4FE10C0B60180E390E00E9414
:103E00006D1FA2FE17C0A1FC03C088E790E002C0AE
:103E100088E590E0B6010CC08A2D867859F0A1FEA5
:103E200002C08BE201C080E2A7FC8DE2B60190E007
:103E30000E946D1F891438F4B60180E390E00E945F
:103E40006D1F9A94F7CF8A94F301E80DF11D8081DC
:103E5000B60190E00E946D1F8110F5CF222009F479
:103E600042CEB60180E290E00E946D1F2A94F6CF08
:103E7000F6018681978102C08FEF9FEF2B960FB6D8
:103E8000F894DEBF0FBECDBFDF91CF911F910F9190
:103E9000FF90EF90DF90CF90BF90AF909F908F906A
:103EA0007F906F905F904F903F902F900895FC010E
:103EB0000590615070400110D8F7809590958E0F55
:103EC0009F1F0895FC016150704001900110D8F7C8
:103ED000809590958E0F9F1F08950F931F93CF93FA
:103EE000DF93FB01238121FD03C08FEF9FEF2CC0E7
:103EF00022FF16C04681578124813581421753071E
:103F000044F4A081B1819D012F5F3F4F3183208315
:103F10008C93268137812F5F3F4F3783268314C0D0
:103F20008B01EC01FB010084F185E02D1995892BB3
:103F3000E1F6D80116968D919C91179701961796E8
:103F40009C938E931697CE01DF91CF911F910F9185
:103F50000895FA01AA27283051F1203181F1E8941F
:103F60006F936E7F6E5F7F4F8F4F9F4FAF4FB1E06C
:103F70003ED0B4E03CD0670F781F891F9A1FA11D67
:103F8000680F791F8A1F911DA11D6A0F711D811D68
:103F9000911DA11D20D009F468943F912AE0269F2D
:103FA00011243019305D3193DEF6CF010895462F8C
:103FB0004770405D4193B3E00FD0C9F7F6CF462F6D
:103FC0004F70405D4A3318F0495D31FD40524193D6
:103FD00002D0A9F7EACFB4E0A69597958795779593
:103FE0006795BA95C9F700976105710508959B011A
:103FF000AC010A2E06945795479537952795BA95A3
:10400000C9F7620F731F841F951FA01D0895F894B0
:02401000FFCFE0
:1040120025001900080001302E2C410052407B740B
:104022006F66313A25642C746F66323A25642C74BB
:104032006F66333A25647D400A0025640A004073A6
:10404200746172746564400040247C25647C282578
:10405200642C2564294000404841207265616368F0
:10406200656440004048422072656163686564404F
:104072000040484320726561636865642C20546186
:10408200736B206163636F6D706C69736865642123
:024092004000EC
:00000001FF
