:100000000C9488000C94A9000C94A9000C94A900ED
:100010000C94A9000C94A9000C94A9000C94A900BC
:100020000C94A9000C94A9000C94A9000C94A900AC
:100030000C94A9000C94A9000C94A9000C94A9009C
:100040000C94A9000C94A9000C94A9000C94A9008C
:100050000C94A9000C94C0000C94A9000C94A90065
:100060000C94A9000C9404010C943D010C94A9007B
:100070000C94A9000C94A9000C94A9000C94A9005C
:100080000C94A9000C94A9000C94A9000C94A9004C
:100090000C94A9000C94A9000C94A9000C94A9003C
:1000A0000C94A9000C94A9000C94A9000C94A9002C
:1000B0000C94A9000C94A9000C94A9000C94A9001C
:1000C0000C94A9000C94A9000C94A9000C94A9000C
:1000D0000C94A9000C94A9000C94A9000C94A900FC
:1000E0000C94A90007634236B79BD8A71A39685603
:1000F00018AEBAAB558C1D3CB7CC5763BD6DEDFD4A
:10010000753EF6177231BF000000803F0C94370E29
:1001100011241FBECFEFD1E2DEBFCDBF00E00CBF88
:1001200012E0A0E0B2E0E2E2F0E400E00BBF02C0C7
:1001300007900D92AA38B107D9F72FE2AAE8B2E0EA
:1001400001C01D92AF38B207E1F70E94F4160C947B
:100150000F200C94000082E084BD95E095BD9AE7E5
:1001600097BD80936E0008952FB7F89460918A022E
:1001700070918B0280918C0290918D022FBF089517
:100180001F920F920FB60F9211248F939F93AF93EC
:10019000BF9380918A0290918B02A0918C02B091C2
:1001A0008D020796A11DB11D80938A0290938B0248
:1001B000A0938C02B0938D0280918E029DE6980FE1
:1001C0009D3718F490938E0216C0805180938E0252
:1001D00080918A0290918B02A0918C02B0918D0245
:1001E0000196A11DB11D80938A0290938B02A0936A
:1001F0008C02B0938D02BF91AF919F918F910F9020
:100200000FBE0F901F9018951F920F920FB60F926E
:1002100011240BB60F922F933F934F935F938F93BD
:100220009F93EF93FF932091C0003091C6002871F7
:100230008091910290E001968F77992740919002EA
:1002400050E08417950739F080939102FC01EC5639
:10025000FD4F308301C022E020938F02FF91EF9188
:100260009F918F915F914F913F912F910F900BBE76
:100270000F900FBE0F901F9018951F920F920FB600
:100280000F9211240BB60F928F939F93EF93FF93CE
:100290009091930280919202981779F08091920246
:1002A00090E001968F77992780939202FC01EC5E93
:1002B000FC4F80818093C60005C08091C1008F7D76
:1002C0008093C100FF91EF919F918F910F900BBE92
:1002D0000F900FBE0F901F901895F89410929302F4
:1002E000109292021092910210929002789497FFCD
:1002F00004C022E02093C0009F779093C5008093B4
:10030000C40088E98093C10086E08093C20008950C
:10031000F8949091910280919002981304C078947F
:1003200080E091E0089578948091900290E00196A9
:100330008F77992780939002FC01EC56FD4F208126
:1003400080918F0290E0982F8827820F911D089549
:10035000F8949091910280919002981304C078943F
:1003600080E091E008957894E0919002F0E0319679
:10037000EF77FF27EC56FD4F208180918F0290E0B0
:10038000982F8827820F911D08952091930230E0C5
:100390002F5F3F4F2F7733274091920250E0241771
:1003A0003507D1F3F901EC5EFC4F80832093930273
:1003B0008091C10080628093C1000895CF93DF9344
:1003C000EC018991882319F00E94C501FACFDF91D1
:1003D000CF910895CF93DF93FC018491EF01219693
:1003E000882321F00E94C501FE01F7CFDF91CF9154
:1003F0000895F8948091910220919002789490E071
:1004000080589F4F821B91098F7799270895F89400
:100410008091900280939102789408950F931F9396
:100420000097C9F0AC014150510960E070E080E0F4
:1004300090E08A019B010027012B022B032B31F056
:1004400076956795579547950196F3CF982F88270E
:10045000842B952B02C080E090E01F910F910895AE
:10046000CF93DF93D62FC42F8A549C4FFC018081F9
:100470000E946A138D2F0E94BD138C2F0E94BD1302
:10048000DF91CF910C94B5131F93CF93DF93162F69
:10049000EA018A549C4FFC0180810E946A13812FDB
:1004A0000E94BD138D2F0E94BD138C2F0E94BD137F
:1004B000DF91CF911F910C94B513FF920F931F936F
:1004C000CF93DF93F62EE901142F052F8A549C4F0A
:1004D000FC0180810E946A138F2D0E94BD13802F22
:1004E0000E94BD13812F0E94BD138D2F0E94BD134A
:1004F0008C2F0E94BD13DF91CF911F910F91FF9020
:100500000C94B5131F93CF93DF93162FEC01CA54AD
:10051000DC4F88810E946A13812F0E94BD1388815D
:1005200081600E94B3130E94D813C82F0E94B51394
:100530008C2FDF91CF911F910895CF93DF93D62F0A
:100540008A549C4FFC01C0818C2F0E946A138D2F0E
:100550000E94BD138C2F81600E94B3130E94CE13A2
:10056000C82FD0E0DC2FCC270E94D813C82B0E94C4
:10057000B513CE01DF91CF910895CF92DF92EF9224
:10058000FF92CF93F62E8A549C4FFC01C0818C2F92
:100590000E946A138F2D0E94BD138C2F81600E94D0
:1005A000B3130E94CE13C82ED12CE12CF12CFC2CBD
:1005B000EE24DD24CC240E94CE13E82A0E94CE1320
:1005C000C82F0E94D813C82ADC2A0E94B513C7017D
:1005D000B601CF91FF90EF90DF90CF900895FF92FA
:1005E0000F931F93CF93DF93162FF42ED52FC22F87
:1005F0008A549C4FFC0180810E946A13812F0E94C3
:10060000BD130F2D1D2FCC2339F0F80181918F01DF
:100610000E94BD13C150F7CFDF91CF911F910F9171
:10062000FF900C94B513FF920F931F93CF93DF931A
:10063000D62FF42E052F122F8A549C4FFC01C08117
:100640008C2F0E946A138D2F0E94BD138C2F816006
:100650000E94B313CF2DD02F112359F0123018F070
:100660000E94CE1302C00E94D81388831150219695
:10067000F3CFDF91CF911F910F91FF900C94B513A1
:100680001F93CF93DF93EC01162F8091000280938C
:10069000B903462F46956AE883E090E00E94300255
:1006A000CA54DC4F1883DF91CF911F9108958A546B
:1006B0009C4FFC0180810895CF92DF92EF92FF92D0
:1006C000CF93DF93EC016A017B0120E030E0A901C8
:1006D000C701B6010E94691A87FD1BC028EB3EEFD7
:1006E0004FEF53E4C701B6010E94291C18168CF085
:1006F00020E030E040E053E4C701B6010E94A41CB2
:100700000E94211BAB0164E4CE010E94440281E0FF
:1007100001C080E0DF91CF91FF90EF90DF90CF900C
:10072000089564E40E949D02BC0180E090E00E9474
:10073000501B20E030E040E05CE30E94A41C0895E0
:100740006115710511F460E504C06130710531F483
:1007500060E70E9482028F5F880F08958FEF0895EF
:10076000CF92DF92EF92FF92CF93DF93EC016A0179
:100770007B0141E060E80E94300241E06FEFCE0172
:100780000E94300240E060E0CE010E9430024091C1
:10079000B10361E9CE010E94300241E060E0CE0188
:1007A0000E94300240E06FEFCE010E94300240E034
:1007B00060E8CE010E943002C114D104E104F104CA
:1007C000A9F068EFCE010E949D02009739F0DC018C
:1007D000A70196010E94DA196B017C01A70196011D
:1007E00064E0CE010E945D0244E001C042E060E0AE
:1007F000CE01DF91CF91FF90EF90DF90CF900C94DE
:100800003002CF93DF93EC0141E060E00E943002C0
:1008100041E06FEFCE010E94300240E060E0CE0187
:100820000E94300240E061E9CE010E94300241E0C6
:1008300060E0CE010E94300240E06FEFCE01DF9118
:10084000CF910C943002CF92DF92EF92FF920F93F0
:100850001F93CF93DF93CDB7DEB72C970FB6F894E5
:10086000DEBF0FBECDBF6C017B010E94B400709350
:10087000B0036093AF0363E1C6010E9482028770F8
:10088000D9F48091950390919603892BA1F30E944E
:10089000B4002091AF033091B003621B730B8091C1
:1008A0009503909196038617970728F781E0809328
:1008B00094038FEF9FEF39C0E114F10431F46EE13E
:1008C000C6010E949D028C012AC02CE0AE014F5F40
:1008D0005F4F64E1C6010E94130389818695869566
:1008E0008695F70180878B819C8198278927982797
:1008F000978386838F819885982789279827938364
:10090000828389859A859827892798279583848368
:100910000B851C851027012710271183008341E0D8
:100920006BE0C6010E943002C8012C960FB6F89405
:10093000DEBF0FBECDBFDF91CF911F910F91FF9012
:10094000EF90DF90CF9008950F931F93CF93DF9395
:10095000EC018B0141E060E80E94300241E06FEF62
:10096000CE010E94300240E060E0CE010E943002E1
:100970004091B10361E9CE010E94300241E060E0A4
:10098000CE010E94300240E06FEFCE010E943002A3
:1009900040E060E8CE010E94300241E060E0CE011C
:1009A0000E9430020E94B4007093B0036093AF03C2
:1009B00060E0CE010E94820280FF1FC080919503FB
:1009C00090919603892BA1F30E94B4002091AF036C
:1009D0003091B003621B730B809195039091960345
:1009E0008617970728F781E0809394038FEF9FEF96
:1009F000DF91CF911F910F910895B801CE01DF9142
:100A0000CF911F910F910C94230480919403109225
:100A1000940308959093960380939503089580918D
:100A20009503909196030895CF92DF92EF92FF92F3
:100A30001F93CF93DF93EC016B017A0141E060E8F3
:100A40000E94300241E06FEFCE010E94300240E090
:100A500060E0CE010E94300246E06FEFCE010E94BE
:100A6000300263E8CE010E948202482F446063E8AE
:100A7000CE010E94300247E06FEFCE010E943002AB
:100A800041E061E8CE010E94300241E060E8CE0121
:100A90000E9430024BE664E9CE010E94300240E041
:100AA00063E8CE010E9430020E94B4007093B0034C
:100AB0006093AF0363E8CE010E948202182F811178
:100AC00016C08091950390919603892B99F30E940B
:100AD000B4002091AF033091B003621B730B80917F
:100AE0009503909196038617970720F73BC041E046
:100AF00063E8CE010E94300262E9CE010E948202C8
:100B0000982F9F77F6019083881F8827881FF70109
:100B1000808340E061E8CE010E94300246E06FEF42
:100B2000CE010E94300263E8CE010E948202482F6B
:100B30004B7F63E8CE010E94300241E06FEFCE01AF
:100B40000E94300241E060E0CE010E94300240E0AD
:100B50006FEFCE010E94300240E060E8CE010E94BB
:100B6000300211E0812FDF91CF911F91FF90EF9024
:100B7000DF90CF900895CF93DF93EB0161E00E9467
:100B8000820284FB992790F9988383FB992790F937
:100B90009A8382FB992790F9998386FB992790F98C
:100BA0009B83881F8827881F8C83DF91CF910895AE
:100BB0002F923F924F925F926F927F928F929F926D
:100BC000AF92BF92CF92DF92EF92FF920F931F935B
:100BD000CF93DF9300D000D0CDB7DEB71C017E836A
:100BE0006D838A0160E070E00E94A00390E0F8014C
:100BF0009183808366E4C1010E948202282F30E045
:100C00002F5F3F4F3A832983F80135832483A081E6
:100C1000B0E020E03FE24AE350E00E94DA194B01E5
:100C20005C01F4EF8F0EF1E09F1EA11CB11C98EE49
:100C3000C92E93E0D92EE12CF12CC501B401A701F6
:100C400096010E94B819A981BA810E94E5196983A9
:100C50007A838B839C8320ED422E27E0522E612CD9
:100C6000712CC501B401A30192010E94B8196981D8
:100C70007A818B819C81620F731F841F951FA7014E
:100C800096010E94B819F801228733874487558757
:100C900061E5C1010E949D029C01332702C0220F21
:100CA000331F9A95E2F72F5F3F4F3A832983F8016C
:100CB00037832683A081B0E020E03FE24AE350E0A2
:100CC0000E94DA194B015C01F4EF8F0EF1E09F1ED8
:100CD000A11CB11CC501B401A70196010E94B8195D
:100CE000A981BA810E94DA1969837A838B839C83F4
:100CF000C501B401A30192010E94B81969817A81EA
:100D00008B819C81620F731F841F951FA701960121
:100D10000E94B819F80126873787408B518B60E70E
:100D2000C1010E9482028F5F880F90E0F8019383D7
:100D3000828361E7C1010E949D029C01992702C044
:100D4000880F991F3A95E2F70196F80191878087FD
:100D5000ED81FE812381222339F0F801268137813C
:100D6000821B930B91878087F801A281B0E020E07D
:100D70003FE24AE350E00E94DA196B017C01F4EF94
:100D8000CF0EF1E0DF1EE11CF11C88EE882E83E01F
:100D9000982EA12CB12CC701B601A50194010E9487
:100DA000B819F801A085B1850E94DA192B013C0120
:100DB000C701B60120ED37E040E050E00E94B819CD
:100DC000C301B201620F731F841F951FA501940117
:100DD0000E94B819F801228B338B448B558B2696D1
:100DE0000FB6F894DEBF0FBECDBFDF91CF911F913C
:100DF0000F91FF90EF90DF90CF90BF90AF909F90BA
:100E00008F907F906F905F904F903F902F900895BC
:100E10002F923F924F925F926F927F928F929F920A
:100E2000AF92BF92DF92EF92FF920F931F93CF93F7
:100E3000DF93CDB7DEB76F970FB6F894DEBF0FBE66
:100E4000CDBF40322EE452076105710508F4B9C0E8
:100E50004A015B011C01BE01695E7F4F0E94BB0518
:100E6000AE014F5F5F4FBE01695E7F4FC1010E94BF
:100E7000D8058F89882349F00B851C852D853E85F3
:100E80000A5C144F2F4F3F4F04C008EE18E020E0DB
:100E900030E0898D882369F08B859C85AD85BE8582
:100EA0008E549D4FAF4FBF4F880F991FAA1FBB1F76
:100EB0000BC0888D882361F08B859C85AD85BE85B0
:100EC0008C569D4FAF4FBF4F080F191F2A1F3B1F56
:100ED000DA8CDD2061F08F859889A989BA898C56D2
:100EE0009D4FAF4FBF4F080F191F2A1F3B1F8B8D00
:100EF000882309F464C0780189018AEDE81A8DEF2E
:100F0000F80A0F4F1F4F8E149F04A006B10608F475
:100F100058C0AB81B0E020E03FE24AE350E00E94DD
:100F2000DA192B013C01A4EF4A0EA1E05A1E611C04
:100F3000711CA50194012E193F09400B510BA8EE1D
:100F4000B3E00E94DA196C8F7D8F8E8F9F8FC30163
:100F5000B20120ED37E040E050E00E94B8198C8DDE
:100F60009D8DAE8DBF8D820F931FA41FB51F8C8FDB
:100F70009D8FAE8FBF8FC301B20128EE33E040E0FA
:100F800050E00E94B8196C8D7D8D8E8D9F8D0E94D2
:100F9000B819C901DD2021F08F819885820F931F38
:100FA0000E940E02AC0161E7C1010E9444028092DE
:100FB000B2039092B303A092B403B092B50381E060
:100FC00001C080E06F960FB6F894DEBF0FBECDBFB4
:100FD000DF91CF911F910F91FF90EF90DF90BF9025
:100FE000AF909F908F907F906F905F904F903F90C9
:100FF0002F9008950F931F93CF93DF93CDB7DEB754
:101000006B970FB6F894DEBF0FBECDBF8C01BE014B
:10101000695E7F4F0E94BB05AE014F5F5F4FBE010F
:10102000695E7F4FC8010E94D8058F89882359F0D7
:101030008B859C85AD85BE85BC01CD016C57724FFB
:101040008F4F9F4F04C066E37BE080E090E0298DE6
:10105000222369F00B851C852D853E850E541D4F7E
:101060002F4F3F4F000F111F221F331F0BC0288D22
:10107000222361F00B851C852D853E850C561D4F66
:101080002F4F3F4F600F711F821F931F2A8D222306
:1010900061F00F85188929893A890C561D4F2F4F09
:1010A0003F4F600F711F821F931F2B8D222361F012
:1010B0000B891C892D893E890A5D1D4F2F4F3F4F9B
:1010C000600F711F821F931F6093B2037093B3036D
:1010D0008093B4039093B5036B960FB6F894DEBF7C
:1010E0000FBECDBFDF91CF911F910F9108951F9338
:1010F000CF93DF93EC01462F416060E00E94300205
:101100000E94B4007093B0036093AF0363E1CE011B
:101110000E948202182F1770B1F48091950390916C
:101120009603892B99F30E94B4002091AF0330916C
:10113000B003621B730B8091950390919603861701
:10114000970720F70BC041E06BE0CE010E94300210
:1011500040E060E0CE010E94300211E0812FDF917B
:10116000CF911F9108950F931F93CF93DF93CDB726
:10117000DEB728970FB6F894DEBF0FBECDBF8C0147
:10118000662349F069E80E948202482F416069E8BD
:10119000C8010E94300240E068E8C8010E943002A5
:1011A00041E060E8C8010E94300241E06FEFC801F1
:1011B0000E94300240E060E0C8010E94300261E914
:1011C000C8010E9482028093B10341E060E0C8013F
:1011D0000E94300240E06FEFC8010E94300240E000
:1011E00060E8C8010E94300260E6C8010E948202E5
:1011F000482F426160E6C8010E94300240E250E0A0
:1012000064E4C8010E9444024FEF61E0C8010E94FB
:101210003002AE01495F5F4FBE01685F7F4FC8017A
:101220000E941405811102C080E037C226E0AE01A1
:101230004F5F5F4F60EBC8010E94130341E06FEF07
:10124000C8010E94300240E06FE4C8010E943002F1
:101250004CE26EE4C8010E94300240E06FEFC8012A
:101260000E94300244EB66EBC8010E9430028F817D
:10127000811102C040E001C04CE0A88580E090E010
:1012800061E070E0282F269526952695582F5770F7
:10129000E1E0F0E0EC0FFD1FE20FF11D841710F00C
:1012A000A9130AC09B0101C0220F5A95EAF72095A5
:1012B00030812323208309C0208130E002C035958E
:1012C00027955A95E2F720FD9F5F8F5F8033D1F617
:1012D00026E0AE014F5F5F4F60EBC8010E94EF0256
:1012E00041E06FEFC8010E94300240E060E0C801B9
:1012F0000E94300240E06FEFC8010E94300240E0DF
:1013000069E0C8010E94300240E060E1C8010E942B
:10131000300240E061E1C8010E94300241E064E235
:10132000C8010E9430024FEF65E2C8010E943002FE
:1013300040E065E7C8010E94300241E06FEFC8015C
:101340000E9430024CE26EE4C8010E94300240E08C
:1013500068E4C8010E94300240E260E3C8010E94D4
:10136000300240E06FEFC8010E94300249E060E3C4
:10137000C8010E94300240E064E5C8010E943002CA
:1013800044E061E3C8010E94300243E062E3C80127
:101390000E94300243E860E4C8010E94300245E246
:1013A00066E4C8010E94300240E060E6C8010E9485
:1013B000300240E067E2C8010E94300246E060E58A
:1013C000C8010E94300240E061E5C8010E9430027D
:1013D00046E962E5C8010E94300248E066E5C801BE
:1013E0000E94300240E367E5C8010E94300240E0FD
:1013F00061E6C8010E94300240E062E6C8010E9436
:10140000300240E064E6C8010E94300240E065E638
:10141000C8010E94300240EA66E6C8010E9430021C
:1014200041E06FEFC8010E94300242E362E2C8016E
:101430000E94300244E167E4C8010E9430024FEF8D
:1014400069E4C8010E94300240E06AE4C8010E94D9
:10145000300240E06FEFC8010E9430024AE06AE7C4
:10146000C8010E94300240E06BE7C8010E943002D0
:1014700041E268E7C8010E94300241E06FEFC80115
:101480000E94300244E363E2C8010E94300240E05F
:1014900062E4C8010E9430024FEF64E4C8010E9478
:1014A000300246E265E4C8010E94300245E066E48D
:1014B000C8010E94300240E460E4C8010E9430028A
:1014C00046E06EE0C8010E9430024AE160E2C801D5
:1014D0000E94300240E463E4C8010E94300240E010
:1014E0006FEFC8010E94300243E064E3C8010E942C
:1014F000300244E465E3C8010E94300241E06FEF2E
:10150000C8010E94300244E061E3C8010E94300239
:1015100049E06BE4C8010E94300245E06CE4C80178
:101520000E94300244E06DE4C8010E94300240E0B5
:101530006FEFC8010E94300240E064E4C8010E94DD
:10154000300240E265E4C8010E94300248E067E4EE
:10155000C8010E94300248E268E4C8010E943002DB
:1015600040E067E6C8010E94300244E060E7C8013D
:101570000E94300241E061E7C8010E9430024EEF54
:1015800062E7C8010E94300240E066E7C8010E949D
:10159000300240E067E7C8010E94300241E06FEF8F
:1015A000C8010E94300241E06DE0C8010E94300293
:1015B00040E06FEFC8010E94300241E060E8C801DE
:1015C0000E94300248EF61E0C8010E94300241E011
:1015D0006FEFC8010E94300241E06EE8C8010E942E
:1015E000300241E060E0C8010E94300240E06FEF4D
:1015F000C8010E94300240E060E8C8010E94300249
:1016000044E06AE0C8010E94300264E8C8010E9418
:101610008202482F4F7E64E8C8010E94300241E0F8
:101620006BE0C8010E943002C8010E94FA07609373
:10163000B2037093B3038093B4039093B50348EE61
:1016400061E0C8010E9430024091B2035091B3039F
:101650006091B4037091B503C8010E94080741E08E
:1016600061E0C8010E94300260E4C8010E9477086E
:10167000882309F4D9CD42E061E0C8010E9430021C
:1016800060E0C8010E947708882309F4CDCD48EEB8
:1016900061E0C8010E94300281E028960FB6F894FC
:1016A000DEBF0FBECDBFDF91CF911F910F91089587
:1016B0008F929F92AF92BF92CF92DF92EF92FF9262
:1016C0000F931F93CF93DF93CDB7DEB76B970FB612
:1016D000F894DEBF0FBECDBF8C016B01F42EE42E5B
:1016E000E694EA94BE01695E7F4F0E94BB05AE019D
:1016F0004F5F5F4FBE01695E7F4FC8010E94D805F2
:10170000C114D10409F07AC02EE0F21679F02F1539
:1017100028F08CE0F8124AC148E10BC020E1F21633
:1017200039F082E1F81242C140E503C040E301C054
:1017300040E467E5C8010E94300248E066E5C80160
:101740000E9430024E2D60E5C8010E943002AF2D8C
:10175000B0E020E03FE24AE350E00E94DA196B017A
:101760007C0124EFC20E21E0D21EE11CF11CC70156
:10177000B60128EE33E040E050E00E94B81949017C
:101780005A01C701B60120ED37E040E050E00E9469
:10179000B81969017A012F85388949895A89A8EED3
:1017A000B3E00E94DA196C0D7D1D8E1D9F1DA501F1
:1017B00094010E94B819C9010E940E02AC0161E5B2
:1017C000C8010E9444022B853C854D855E85A8EEAC
:1017D000B3E00E94DA196C0D7D1D8E1D9F1DA501C1
:1017E00094010E94B8194FEF213081E0380708F4C6
:1017F000420F66E4C8010E943002B8C0CA94CD28E6
:1018000009F0D4C08AE0F816B9F18F15F0F028E09D
:10181000F212CCC040E168E4C8010E94300248E006
:1018200067E4C8010E94300242E062E3C8010E94FE
:1018300030024CE060E3C8010E94300241E06FEFEB
:10184000C8010E94300240E342C08CE0F81629F142
:101850002EE0F212ABC048E468E4C8010E943002F6
:1018600048E067E4C8010E94300243E062E3C80137
:101870000E94300247E021C048E268E4C8010E94AB
:10188000300248E067E4C8010E94300243E062E3AE
:10189000C8010E94300249E010C048E368E4C80172
:1018A0000E94300248E067E4C8010E94300243E031
:1018B00062E3C8010E94300248E060E3C8010E9470
:1018C000300241E06FEFC8010E94300240E260E365
:1018D000C8010E94300240E06FEFC8010E94300250
:1018E0004E2D60E7C8010E943002AF2DB0E020E02D
:1018F0003FE24AE350E00E94DA196B017C0124EFD9
:10190000C20E21E0D21EE11CF11C2B893C894D89BD
:101910005E89A8EEB3E00E94DA194B015C01C701B1
:10192000B60120ED37E040E050E00E94B819820E89
:10193000931EA41EB51EC701B60128EE33E040E099
:1019400050E00E94B819C501B4010E94B819C9013C
:101950006A8D662321F08F819885820F931F0E94E4
:101960000E02AC0161E7C8010E9444024091B2033B
:101970005091B3036091B4037091B503C8010E9404
:10198000080761E0C8010E948202F82E42E061E08F
:10199000C8010E94300260E0C8010E9477084F2D04
:1019A00061E0C8010E94300281E001C080E06B96D6
:1019B0000FB6F894DEBF0FBECDBFDF91CF911F9160
:1019C0000F91FF90EF90DF90CF90BF90AF909F90DE
:1019D0008F900895E1E0F1E08081886380836F98C3
:1019E000E2E0F1E080818863808308958CB1881FF4
:1019F0008827881F0895E2E0F1E08081877F808357
:101A00000895E2E0F1E08081886080830895E2E05B
:101A1000F1E080818F7E80830895E2E0F1E08081B3
:101A2000806180830895E2E0F1E080818F7D808392
:101A30000895E2E0F1E08081806280830895EAE029
:101A4000F1E080818862808384B1806684B9EBE0B4
:101A5000F1E080818862808385B1806685B90895D0
:101A6000CF93DF93F894C1E8D0E0188221E231E00F
:101A7000D9011C928FEF8093850010928400109200
:101A800089008093880010928B0080938A001092C6
:101A90008D0080938C008093250110922401109278
:101AA00029018093280110922B0180932A01109222
:101AB0002D0180932C01A0E2B1E08C91886A8C9377
:101AC0008C918B7A8C93E0E8F0E08081886A808347
:101AD00080818B7A80838C9181608C938C918D7FB7
:101AE0008C93D9018C9188608C93808181608083F4
:101AF00080818D7F80838881886088838C918360DA
:101B00008C938C918B7F8C93888183608883888170
:101B10008B7F88837894DF91CF910895609560934F
:101B200028018095809388000895609560932C012A
:101B3000809580938A0008958FEF81B909988FE38B
:101B40009CE90197F1F700C0000060910A0280E073
:101B500090E00E94400380E090E00E945703809351
:101B6000AB188FE39CE90197F1F700C000000B98D8
:101B70006091090281E090E00E94400381E090E0E2
:101B80000E9457038093661A8FE39CE90197F1F74F
:101B900000C000000D986091080282E090E00E9471
:101BA00040038FE39CE90197F1F700C0000082E059
:101BB00090E00E94570380937F2F08950E941F0D8D
:101BC0000C94300D0E948801911102C0811108957A
:101BD0008FEF089560E070E080E090E00E942304C1
:101BE0009093852F8093842F88979093832F809351
:101BF000822F60E070E081E090E00E9423049093E7
:101C000093198093921990938E2F80938D2F60E07B
:101C100070E082E090E00E9423049093FE1980938C
:101C2000FD194E979093AA188093A9189F938F93AC
:101C300080918E2F8F9380918D2F8F938091832F02
:101C40008F938091822F8F938DE092E09F938F935B
:101C50008EEA97E19F938F930E94261D8DB79EB7C2
:101C60000A960FB6F8949EBF0FBE8DBF08950E94CE
:101C7000EA0D2091822F3091832F8091A9189091A5
:101C8000AA18821B930B9093AA038093A90308952B
:101C90004F925F926F927F928F929F92AF92BF927C
:101CA000CF92DF92EF92FF92CF93DF930E94370E95
:101CB000EC01BC01990F880B990B0E94521B0E94EA
:101CC000E81A6B017C01662777276C1B7D0B072EBA
:101CD000000C880B990B0E94521B0E94E81A4B01C2
:101CE0005C019B01AC01C701B6010E94FC192B01EC
:101CF0003C01A5019401C701B6010E94FD199B0199
:101D0000AC01C301B2010E946E1A0E941A1B7093AB
:101D1000AA036093A9032091A7033091A803FB01B4
:101D2000E21BF30B4091030250910402E49F9001E7
:101D3000E59F300DF49F300D1124E0910502F091E4
:101D40000602E69FA001E79F500DF69F500D11245B
:101D5000420F531F5093AD174093AC177093A803D5
:101D60006093A70320910B0230910C02CA01820FED
:101D7000931F02962FEF209328018095809388006F
:101D800080910B0290910C024091AC175091AD17CD
:101D9000841B950B20932C01809580938A00DF9102
:101DA000CF91FF90EF90DF90CF90BF90AF909F903A
:101DB0008F907F906F905F904F90089580E00E9489
:101DC00066158093E017282F30E03093AB172093EF
:101DD000AA171F928F938AE292E09F938F9381EECE
:101DE00097E19F938F930E94261D0F900F900F9065
:101DF0000F900F900F9081EE97E10C94DE010E94FE
:101E0000E20D8093FC198F3FA9F02091AD03309132
:101E1000AE03F901ED5EF74E80832F5F3F4F3093A5
:101E2000AE032093AD038FE99FE00197F1F700C067
:101E30000000E5CF809113188A32A9F363E178E1BD
:101E40008CEB93E00E941F1DE3E1F8E1119288E121
:101E5000E534F807D9F78AE2809313181092AE039D
:101E60001092AD031092AC031092AB0308950F9340
:101E70001F93CF93DF930E94EA0D00918D2F109155
:101E80008E2F8091A9189091AA18C5EADFEF9801CA
:101E9000281B390BC9014E96CD9778F0C0932801C5
:101EA000D0938800D0932C01C0938A000E94EA0D41
:101EB0008091A9189091AA18EACF8FEF80932801FA
:101EC0008093880080932C0180938A008091A503E1
:101ED0009091A603009719F483E090E005C082304A
:101EE000910539F481E090E09093A6038093A503D7
:101EF0000CC08330910519F482E090E0F5CF019792
:101F000021F41092A6031092A503DF91CF911F91A7
:101F10000F9108950F931F93CF93DF930E94EA0DC3
:101F200000918D2F10918E2F8091A9189091AA1851
:101F3000C5EADFEF9801281B390BC9014E96CD97F2
:101F400078F0C0932C01D0938A00D0932801C093DD
:101F500088000E94EA0D8091A9189091AA18EACFF2
:101F60008FEF809328018093880080932C018093C9
:101F70008A008091A5039091A603009719F481E04F
:101F800090E005C08130910539F482E090E09093B3
:101F9000A6038093A5030CC08230910519F483E059
:101FA00090E0F5CF039721F41092A6031092A503B9
:101FB000DF91CF911F910F9108950E948A0F0C9489
:101FC0008A0F8FEF809328018093880080932C01E3
:101FD00080938A0008952091F8193091F919AC0185
:101FE000421B530B4130510511F58091A50390918F
:101FF000A603009719F40E948A0F0AC08330910546
:1020000019F40E94DD0F04C0029711F40E94370FEB
:102010000E94DE0E8091AA179091AB17C0972CF406
:102020000E94DE0E0E94480EF5CF0C94E10F4F3F48
:102030005F4F01F58091A5039091A603009719F4D5
:102040000E94370F0AC08130910519F40E94DD0FFC
:1020500004C0029711F40E948A0F0E94DE0E809144
:10206000AA179091AB17C09704F70E94DE0E0E944A
:10207000480EF5CF2817390709F051C08091FA1999
:102080009091FB19681B790B6130710521F58091E6
:10209000A5039091A6038130910519F40E94370F92
:1020A0000AC08230910519F40E94DD0F04C0039725
:1020B00011F40E948A0F0E94DE0E8091AA1790915F
:1020C000AB17C0972CF40E94DE0E0E94480EF5CF8D
:1020D0000E94E10F16C06F3F7F4F99F48091A503D6
:1020E0009091A6038330910519F40E94370F09C01F
:1020F000009719F40E94DD0F04C0019711F40E94AB
:102100008A0F0E94DE0E8091AA179091AB17C0979C
:102110000CF08BCF0E94DE0E0E94480EF4CF089583
:102120006F927F928F929F92AF92BF92CF92DF92E7
:10213000EF92FF920F931F93CF93DF931092A00320
:1021400010929F03ACEBB3E080E090E0ED01FE0164
:1021500001900020E9F73197EC5BF3408E179F0761
:1021600098F42D912C3771F420919F033091A003A6
:10217000F901E455F74E80832F5F3F4F3093A00362
:1021800020939F030196E3CF60919F037091A0037A
:102190006150710970939E0360939D034091A30366
:1021A0005091A4038091A1039091A2033091AB03BD
:1021B0002091AC03C3E96C2ECBE17C2EDFEFED2E3A
:1021C000D9E1FD2EC0E2D4E0ECEAF8E18F010C5A2F
:1021D0001841061717070CF084C02191022E000C3D
:1021E000330BA0800A2C000CBB08C90184549C4FFF
:1021F0006C0140E050E080E090E02A153B05F4F4EB
:10220000D6011D916D01183259F48A01000F111F7A
:102210000959154ED8012D933C934F5F5F4F0BC06A
:10222000193249F48C01000F111F015D144ED801C1
:102230002D933C9301962F5F3F4FDFCFD7014D93F6
:102240005D937D0107E61AE120E030E024173507B1
:10225000DCF4D801AD90BD908D016901CC0CDD1C82
:102260004E018C0C9D1CD501A454BC4F1196CC90F2
:102270000C2C000CDD08B0E3CB1AD108D401CD92B0
:10228000DC922F5F3F4FE2CF0FE21BE120E030E016
:1022900028173907D4F4D801AD90BD908D0169019C
:1022A000CC0CDD1C43018C0C9D1CD501A554BC4FEE
:1022B000CC900C2C000CDD08B0E3CB1AD108D40173
:1022C000CD92DC922F5F3F4FE3CF382F292F97FF1E
:1022D00002C030E020E0B4E66B0E711CCC59DF4F39
:1022E00075CF3093AB032093AC039093A2038093FC
:1022F000A1035093A4034093A303DF91CF911F91B7
:102300000F91FF90EF90DF90CF90BF90AF909F9094
:102310008F907F906F900895AF92BF92CF92DF928F
:10232000EF92FF920F931F93CF93DF93CDB7DEB75A
:102330006E970FB6F894DEBF0FBECDBF10929C0310
:1023400010929B0310929A03109299031092980393
:10235000109297031092AC031092AB03ACEBB3E076
:10236000FD0101900020E9F73197EC5BF34080918B
:10237000AB039091AC038E179F0708F045C0FC019A
:10238000E454FC4F2081283291F420919B0330913A
:102390009C03E5E1F0E0EC0FFD1FE20FF31F8083EB
:1023A0002F5F3F4F30939C0320939B0327C029321C
:1023B00091F42091990330919A03EBE0F0E0EC0F57
:1023C000FD1FE20FF31F80832F5F3F4F30939A036F
:1023D0002093990313C02A3389F4209197033091F5
:1023E0009803E1E0F0E0EC0FFD1FE20FF31F8083A4
:1023F0002F5F3F4F3093980320939703019690935C
:10240000AC038093AB03ACCF4091970350919803FA
:102410005E0185E1A80EB11C6BEC7AE1DE011B9632
:1024200005E418E1FE0131967F0184E9C82E89E1B7
:10243000D82E20E030E024173507BCF5F501819156
:102440005F01082E000C990B84549C4FFC01818184
:10245000082E000C990BC097FB0181939193BF014B
:102460008D91082E000C990B85549C4FFC018081A6
:10247000082E000C990BC097F801819391938F015E
:10248000F70181917F01082E000C990B85549C4F18
:10249000FC018081082E000C990BC097F6018193F6
:1024A00091936F012F5F3F4FC6CF5093BB03409373
:1024B000BA036E960FB6F894DEBF0FBECDBFDF91A4
:1024C000CF911F910F91FF90EF90DF90CF90BF9031
:1024D000AF900895FC01E41BF50BE130F10589F4A0
:1024E0008091A5039091A603009711F40C948A0F94
:1024F0008330910511F40C94DD0F029799F50C943B
:10250000370F319661F48091A5039091A60300974F
:10251000B1F38130910579F3029721F5E7CF841764
:10252000950701F5621B730B6130710569F48091A9
:10253000A5039091A6038130910509F3823091059E
:10254000D1F2039779F4D2CF6F3F7F4F59F4809146
:10255000A5039091A6038330910589F2009759F263
:10256000019721F20895CF92DF92EF92FF920F939D
:102570001F93CF93DF93C12CD12C0FEF10E0C8E154
:10258000D0E07AE0E72EFF24FA940E94DE0E8091DC
:10259000AA179091AB170097D1F1883F9105B9F137
:1025A0009801281B390BC9019E01281B390BA90171
:1025B0004C195D09CA01880F991F480F591FE29EE7
:1025C000C001E39E900D1124480F591F6FEF81EE5B
:1025D00094E0615080409040E1F700C0000080919D
:1025E0000B0290910C02840F951FF09228018095A8
:1025F0008093880080910B0290910C02841B950BB4
:10260000F0922C01809580938A006901BECFDF9102
:10261000CF911F910F91FF90EF90DF90CF90089591
:10262000EF92FF920F931F93CF93DF93E12CF12C46
:10263000C8E1D0E00AE01FEF0E94DE0E8091AA17E9
:102640009091AB170097B1F1883F910599F1AE01D8
:10265000481B590B9A012E193F09C901880F991F70
:10266000280F391F049FC001059F900D1124280FCA
:10267000391F6FEF81EE94E0615080409040E1F7A8
:1026800000C0000080910B0290910C02820F931FFA
:102690001093280180958093880080910B0290917F
:1026A0000C02821B930B10932C01809580938A005F
:1026B0007A01C2CFDF91CF911F910F91FF90EF90E0
:1026C00008956F98779A08951092B90080EC8093DE
:1026D000B800089594EA9093BC009091BC0097FFD5
:1026E000FCCF9091B900987F983021F0903111F093
:1026F00081E008958093BB0084E88093BC008091C2
:10270000BC0087FFFCCF8091B900887F883111F031
:10271000803471F780E0089524EA34E844E9209396
:10272000BC009091BC0097FFFCCF9091B900987FBE
:10273000983011F0903199F78093BB003093BC0032
:102740009091BC0097FFFCCF9091B900987F903298
:1027500011F0983539F44093BC009091BC0094FD81
:10276000FCCFDDCF08950C946A1384E98093BC00FC
:102770008091BC0084FDFCCF08958093BB0084E869
:102780008093BC008091BC0087FFFCCF9091B90082
:10279000987F81E0983209F480E0089584EC80937A
:1027A000BC008091BC0087FFFCCF8091BB000895E6
:1027B00084E88093BC008091BC0087FFFCCF8091AF
:1027C000BB000895CF93DF93D62FC42F805C0E9467
:1027D0008C138D2F0E94BD138C2F0E94BD13DF918F
:1027E000CF910C94B513CF93DF930E94641383E0D1
:1027F0008A95F1F70000C6E8DFE218828FEF89833F
:102800008A831B821C824981888160E00E94E213D6
:102810004A81888161E0DF91CF910C94E21382308C
:1028200060F495E0899FF0011124EA57F04D61832F
:102830004181808160E00C94E2130895823060F45D
:1028400095E0899FF0011124EA57F04D628342819F
:10285000808161E00C94E2130895823018F5A82F6E
:10286000B0E095E0899FF0011124EA57F04D2181F5
:1028700081E090E001C0880F6A95EAF7411103C03A
:102880008095822301C0822B95E09A9FF0019B9F47
:10289000F00D1124EA57F04D81834181808160E081
:1028A0000C94E2130895823018F5A82FB0E095E05B
:1028B000899FF0011124EA57F04D228181E090E0D8
:1028C00001C0880F6A95EAF7411103C08095822301
:1028D00001C0822B95E09A9FF0019B9FF00D11247F
:1028E000EA57F04D82834281808161E00C94E213CB
:1028F0000895823060F495E0899FF0011124EA5731
:10290000F04D63834381808162E10C94E21308956A
:10291000823060F495E0899FF0011124EA57F04D70
:1029200064834481808163E10C94E21308951F93D2
:10293000CF93DF93162FD42FC52F805C0E948C136A
:10294000812F0E94BD138D2F0E94BD138C2F0E94DA
:10295000BD13DF91CF911F910C94B513CF93DF93EB
:10296000C82FD62F80E48C0F0E948C138D2F0E94CD
:10297000BD1381E48C0F0E94B3130E94D813C82F9B
:102980000E94B5138C2FDF91CF9108950F931F9361
:10299000CF93DF93823060F5142F062FC82FD0E03D
:1029A00095E0899FF0011124EA57F04D808164E1A0
:1029B0000E94AE1421E030E001C0220F0A95EAF730
:1029C000111103C02095282301C0282B85E08C9F7E
:1029D000F0018D9FF00D1124EA57F04D23834381C0
:1029E000808162E1DF91CF911F910F910C94E213EE
:1029F000DF91CF911F910F9108950F931F93CF9364
:102A0000DF93823060F5142F062FC82FD0E095E0B9
:102A1000899FF0011124EA57F04D808165E10E9401
:102A2000AE1421E030E001C0220F0A95EAF711113F
:102A300003C02095282301C0282B85E08C9FF0013E
:102A40008D9FF00D1124EA57F04D2483448180813D
:102A500063E1DF91CF911F910F910C94E213DF910D
:102A6000CF911F910F910895CF93823098F4C62F84
:102A700095E0899FF0011124EA57F04D808162E1D1
:102A80000E94AE1490E002C095958795CA95E2F732
:102A9000817001C080E0CF910895CF93823098F487
:102AA000C62F95E0899FF0011124EA57F04D8081EF
:102AB00063E10E94AE1490E002C095958795CA9597
:102AC000E2F7817001C080E0CF910895823050F428
:102AD00095E0899FF0011124EA57F04D808162E171
:102AE0000C94AE1480E00895823050F495E0899FF4
:102AF000F0011124EA57F04D808163E10C94AE148B
:102B000080E00895FF920F931F93CF93DF9382305D
:102B100068F5122F042FF62E95E0899FE00111240D
:102B2000CA57D04D88816AE00E94AE14E1E0F0E01F
:102B3000BF0101C0660FFA94EAF78F7B862BBF01B5
:102B400001C0660F0A95EAF78B7F682B01C0EE0F74
:102B50001A95EAF76D7F462F4E2B88816AE0DF9148
:102B6000CF911F910F91FF900C94E213DF91CF91C1
:102B70001F910F91FF900895FF920F931F93CF9392
:102B8000DF93823068F5122F042FF62E95E0899F8F
:102B9000E0011124CA57D04D88816BE00E94AE1429
:102BA000E1E0F0E0BF0101C0660FFA94EAF78F7B25
:102BB000862BBF0101C0660F0A95EAF78B7F682B51
:102BC00001C0EE0F1A95EAF76D7F462F4E2B8881D4
:102BD0006BE0DF91CF911F910F91FF900C94E21366
:102BE000DF91CF911F910F91FF900895BF92CF92E7
:102BF000DF92EF92FF920F931F93CF93DF93823078
:102C000008F069C0D02EB22E142FD62FE82EF12C4A
:102C100025E0829FF0011124EA57F04D808168E0A1
:102C20000E94AE1441E050E0FA0102C0EE0FFF1F17
:102C3000DA95E2F7EF01CE2EC094112319F04C2D56
:102C4000482302C04E2F482B85E08E9D80018F9D2A
:102C5000100D11240A57104DF801808168E00E9480
:102C6000E213F801808166E00E94AE14BB2019F0E7
:102C70004C2D482302C04C2F482B85E08E9D8001AF
:102C80008F9D100D11240A57104DF801808166E0C8
:102C90000E94E213F801808164E00E94AE14D1101A
:102CA00003C04C2D482302C04C2F482B85E08E9D3D
:102CB000F0018F9DF00D1124EA57F04D808164E002
:102CC000DF91CF911F910F91FF90EF90DF90CF9008
:102CD000BF900C94E213DF91CF911F910F91FF9061
:102CE000EF90DF90CF90BF900895BF92CF92DF9288
:102CF000EF92FF920F931F93CF93DF93823008F0F0
:102D000069C0D02EB22E142FD62FE82EF12C25E03C
:102D1000829FF0011124EA57F04D808169E00E9402
:102D2000AE1441E050E0FA0102C0EE0FFF1FDA9549
:102D3000E2F7EF01CE2EC094112319F04C2D482359
:102D400002C04E2F482B85E08E9D80018F9D100D77
:102D500011240A57104DF801808169E00E94E213A6
:102D6000F801808167E00E94AE14BB2019F04C2D61
:102D7000482302C04C2F482B85E08E9D80018F9DFB
:102D8000100D11240A57104DF801808167E00E9450
:102D9000E213F801808165E00E94AE14D11003C0F7
:102DA0004C2D482302C04C2F482B85E08E9DF0010E
:102DB0008F9DF00D1124EA57F04D808165E0DF9181
:102DC000CF911F910F91FF90EF90DF90CF90BF9028
:102DD0000C94E213DF91CF911F910F91FF90EF9030
:102DE000DF90CF90BF900895CF93DF9300D000D0B5
:102DF000CDB7DEB787E690E00E946D010E94070222
:102E00000E94DE0D0E94EA0C0E9464130E9461136E
:102E10000E949C0D61E080E090E00E94B30861E0B8
:102E200081E090E00E94B30861E082E090E00E94BF
:102E3000B3080E94F3136FEF80E40E940F1460E068
:102E400080E40E941E1460E080E40E94881440E048
:102E500050E0BA0180E090E00E94B00340E050E012
:102E6000BA0181E090E00E94B0030E94DE0E40E0D3
:102E700050E0BA0182E090E00E94B0038AE28093C1
:102E800013181092F9191092F8191092FB19109258
:102E9000FA190E94FF0E8EE292E00E94DE010E946B
:102EA000FF0E8EE292E00E94DE010E948C110E94D1
:102EB000FF0E0E949010679BFECF85E392E00E9478
:102EC000DE010BE11FE235E4E32E38E1F32E4BEC9B
:102ED000C42E4AE1D42E54E9A52E59E1B52E6EE751
:102EE000462E69E1562E83E99BE19A83898370E23D
:102EF000272E74E0372E612C712C8091BA039091AB
:102F0000BB03861597050CF4A2C01E821D82812C7E
:102F1000912C5C824B82F201808191818816990606
:102F2000C4F4E981FA818D819E81E80FF91F6081E7
:102F30007181FC01E20DF31D808191810E94EB0FF4
:102F40009FEF891A990AED81FE813296FE83ED8307
:102F5000E2CF0197F4E6F89FA001F99F500D1124EC
:102F60009A012D56344E405E5B4FF80162817381A9
:102F7000808191810E946A12F70140815181F2E0C3
:102F8000EF0EF11CF60120813181F2E0CF0ED11C51
:102F9000F50180819181F2E0AF0EB11C5F934F93F8
:102FA0003F932F939F938F938FE392E09F938F9301
:102FB0008EEA97E19F938F930E94261D8EEA97E1F8
:102FC0000E94DE010E94FB0CFFEF23ED40E3F15075
:102FD00020404040E1F700C000000E94010D62E087
:102FE000460E511CEB81FC81808191810197F2E3B7
:102FF000F69D9001F79D300D1124820F931F880FCD
:10300000991FFC01E05EFB4F208131813093F9195B
:103010002093F819FC01ED56F44E80819181909334
:10302000FB198093FA192FEF621A720A0C5F1F4F77
:1030300089819A818C599F4F9A83898394E6290EBE
:10304000311C0FB6F894DEBF0FBECDBF56CFFFEFD9
:10305000F09328012BE920938800F0932C01209312
:103060008A004FEF63EC89E0415060408040E1F717
:1030700000C000000E94E10F0E9410138091AA1767
:103080009091AB17892BB9F49FEF90932801EBE94E
:10309000E093880090932C01E0938A00FFEF23ECEB
:1030A00049E0F15020404040E1F700C000000E949C
:1030B000E10F0E94370F0E9410138091AA17909180
:1030C000AB17883F9105B9F49FEF909328018BE9E6
:1030D0008093880090932C0180938A006FEF83EC9B
:1030E00099E0615080409040E1F700C000000E94EC
:1030F000E10F0E948A0FEFEFE0932801FBE9F093C4
:103100008800E0932C01F0938A002FEF43EC69E0F4
:10311000215040406040E1F700C000000E94E10FF4
:103120008EE492E00E94DE010E94130D8FEF93ED7A
:10313000E0E381509040E040E1F700C000000E94D1
:10314000190D0E94DD0FFFEFF09328012BE920936A
:103150008800F0932C0120938A004FEF63EC89E004
:10316000415060408040E1F700C000000E94E10F44
:103170000E948A0F0E94101387E39EE04897A9F4EB
:103180009FEF90932801EBE9E093880090932C0146
:10319000E0938A00FFEF23EC49E0F15020404040EB
:1031A000E1F700C000000E94E10F0E94370F0E946B
:1031B000B31287E39EE0873E9105A9F49FEF9093B9
:1031C00028018BE98093880090932C0180938A00DA
:1031D0006FEF83EC99E0615080409040E1F700C0D0
:1031E00000000E94E10F0E94370F0E94101380918F
:1031F000AA179091AB17883F9105B9F49FEF909370
:1032000028018BE98093880090932C0180938A0099
:10321000EFEFF3EC29E0E150F0402040E1F700C08F
:1032200000000E94E10F0E948A0F4FEF4093280197
:103230006BE96093880040932C0160938A008FEFC4
:1032400093ECE9E081509040E040E1F700C00000DD
:103250000E94E10F8BE592E00E94DE010E94130DB7
:10326000FFEF23ED40E3F15020404040E1F700C084
:1032700000000E94190D0E94DD0F6FEF609328017E
:103280008BE98093880060932C0180938A009FEFE4
:10329000E3ECF9E09150E040F040E1F700C00000BD
:1032A0000E94E10F0E948A0F0E94101387E39EE0A4
:1032B0004897A9F42FEF209328014BE94093880009
:1032C00020932C0140938A006FEF83EC99E06150CA
:1032D00080409040E1F700C000000E94E10F0E9492
:1032E000370F0E94B3128091AA179091AB17883FB5
:1032F0009105B9F49FEF909328018BE980938800A2
:1033000090932C0180938A00EFEFF3EC29E0E150D9
:10331000F0402040E1F700C000000E94E10F0E9451
:103320008A0F9FEF909328018BE9809388009093F8
:103330002C0180938A004FEF63EC89E0415060409C
:103340008040E1F700C000000E94E10F88E692E0B3
:103350000E94DE010E94130D9FEFE3EDF0E3915018
:10336000E040F040E1F700C000000E94190DFFCFDF
:10337000A1E21A2EAA1BBB1BFD010DC0AA1FBB1F79
:10338000EE1FFF1FA217B307E407F50720F0A21BEB
:10339000B30BE40BF50B661F771F881F991F1A9458
:1033A00069F760957095809590959B01AC01BD0182
:1033B000CF0108950E94ED19A59F900DB49F900D27
:1033C000A49F800D911D11240895B7FF0C94DA1964
:1033D0000E94DA19821B930B0895A29FB001B39F3C
:1033E000C001A39F700D811D1124911DB29F700D0E
:1033F000811D1124911D08955058BB27AA270E94B2
:10340000141A0C94EF1B0E94E11B38F00E94E81B79
:1034100020F039F49F3F19F426F40C94B71B0EF4F6
:10342000E095E7FB0C94B11BE92F0E94001C58F3B8
:10343000BA17620773078407950720F079F4A6F599
:103440000C94221C0EF4E0950B2EBA2FA02D0B012C
:10345000B90190010C01CA01A0011124FF27591BD9
:1034600099F0593F50F4503E68F11A16F040A22FDF
:10347000232F342F4427585FF3CF46953795279550
:10348000A795F0405395C9F77EF41F16BA0B620B4F
:10349000730B840BBAF09150A1F0FF0FBB1F661F96
:1034A000771F881FC2F70EC0BA0F621F731F841FD9
:1034B00048F4879577956795B795F7959E3F08F0FF
:1034C000B0CF9395880F08F09927EE0F97958795C1
:1034D00008950E948D1B08F481E008950E94821ACD
:1034E0000C94EF1B0E94E81B58F00E94E11B40F077
:1034F00029F45F3F29F00C94B11B51110C94231C4B
:103500000C94B71B0E94001C68F39923B1F3552358
:1035100091F3951B550BBB27AA27621773078407E6
:1035200038F09F5F5F4F220F331F441FAA1FA9F37C
:1035300035D00E2E3AF0E0E832D091505040E6956A
:10354000001CCAF72BD0FE2F29D0660F771F881FCB
:10355000BB1F261737074807AB07B0E809F0BB0BBE
:10356000802DBF01FF2793585F4F3AF09E3F5105D2
:1035700078F00C94B11B0C94231C5F3FE4F3983E4D
:10358000D4F3869577956795B795F7959F5FC9F7BB
:10359000880F911D9695879597F90895E1E0660F3C
:1035A000771F881FBB1F621773078407BA0720F0B5
:1035B000621B730B840BBA0BEE1F88F7E09508951E
:1035C00029F416F00C94B11B0C94221C0C94B71B1C
:1035D0000E94081CA8F39638A0F707F80F92E89409
:1035E0002BE33AEA48EB5FE70E94BA1C0F920F9276
:1035F0000F924DB75EB70F920E94701CE4EEF0E0A0
:103600000E94BA1B4F915F91EF91FF91E595EE1FDC
:10361000FF1F49F0FE57E0684427EE0F441FFA955C
:10362000E1F74195550B0E943A1C0F9007FE0C9450
:103630002E1C08950E94211B6894B1110C94231C28
:1036400008950E94081C88F09F5798F0B92F992779
:10365000B751B0F0E1F0660F771F881F991F1AF07D
:10366000BA95C9F714C0B13091F00E94221CB1E0A4
:1036700008950C94221C672F782F8827B85F39F0A3
:10368000B93FCCF3869577956795B395D9F73EF416
:1036900090958095709561957F4F8F4F9F4F0895BE
:1036A000E89409C097FB3EF49095809570956195DC
:1036B0007F4F8F4F9F4F9923A9F0F92F96E9BB2792
:1036C0009395F695879577956795B795F111F8CF0E
:1036D000FAF4BB0F11F460FF1BC06F5F7F4F8F4F79
:1036E0009F4F16C0882311F096E911C0772321F06F
:1036F0009EE8872F762F05C0662371F096E8862F07
:1037000070E060E02AF09A95660F771F881FDAF75D
:10371000880F9695879597F90895990F0008550F8A
:10372000AA0BE0E8FEEF16161706E807F907C0F047
:1037300012161306E407F50798F0621B730B840B4F
:10374000950B39F40A2661F0232B242B252B21F429
:1037500008950A2609F4A140A6958FEF811D811DC9
:10376000089597F99F6780E870E060E008959FEF03
:1037700080EC0895DF93CF931F930F93FF92EF9206
:10378000DF927B018C01689406C0DA2EEF010E9463
:10379000B71CFE01E894A59125913591459155916D
:1037A000A6F3EF010E94141AFE019701A801DA9412
:1037B00069F7DF90EF90FF900F911F91CF91DF910C
:1037C000089500240A941616170618060906089587
:1037D00000240A9412161306140605060895092EED
:1037E0000394000C11F4882352F0BB0F40F4BF2B5C
:1037F00011F460FF04C06F5F7F4F8F4F9F4F08959C
:1038000057FD9058440F551F59F05F3F71F0479591
:10381000880F97FB991F61F09F3F79F08795089576
:10382000121613061406551FF2CF4695F1DF08C095
:10383000161617061806991FF1CF869571056105B2
:1038400008940895E894BB2766277727CB0197F95A
:1038500008950E948D1B08F48FEF08959B01AC0121
:1038600060E070E080E89FE30C946E1A0C94B11B4A
:103870000C94111D0E94081CD8F39923C9F3940FCE
:10388000511DA3F39150504094F059F0882332F029
:10389000660F771F881F91505040C1F79E3F51051A
:1038A0002CF7880F911D9695879597F908955F3F9E
:1038B000ACF0983E9CF0BB27869577956795B795B9
:1038C00008F4B1609395C1F7BB0F58F711F460FF8E
:1038D000E8CF6F5F7F4F8F4F9F4FE3CF0C94231C38
:1038E000FA01DC01AA0FBB1F9B01AC01BF5728F4F2
:1038F000222733274427507820C0B75190F4AB2FAC
:103900000024469537952795011CA395D2F30020F6
:1039100071F0220F331F441FB395DAF30ED00C94CD
:10392000FC1961307105A0E88A07B94630F49B01A3
:10393000AC016627772788279078309621F020837E
:1039400031834283538308950E94B71C0C94EF1B6C
:103950000E94E11B38F00E94E81B20F0952311F033
:103960000C94B11B0C94B71B11240C94231C0E94C3
:10397000001C70F3959FC1F3950F50E0551F629F97
:10398000F001729FBB27F00DB11D639FAA27F00DB8
:10399000B11DAA1F649F6627B00DA11D661F829FDF
:1039A0002227B00DA11D621F739FB00DA11D621FC4
:1039B000839FA00D611D221F749F3327A00D611DE1
:1039C000231F849F600D211D822F762F6A2F1124C3
:1039D0009F5750409AF0F1F088234AF0EE0FFF1FF6
:1039E000BB1F661F771F881F91505040A9F79E3F4D
:1039F000510580F00C94B11B0C94231C5F3FE4F341
:103A0000983ED4F3869577956795B795F795E795A2
:103A10009F5FC1F7FE2B880F911D9695879597F9AB
:103A200008959F3F31F0915020F4879577956795E1
:103A3000B795880F911D9695879597F90895FB0185
:103A4000DC0101900D920020E1F708950F931F9380
:103A5000CF93DF93CDB7DEB72E970FB6F894DEBFC6
:103A60000FBECDBF0E891F8986E08C831A83098320
:103A70008FEF9FE79E838D83AE01465E5F4F688D1B
:103A8000798DCE0101960E94551DEF81F885E00FDA
:103A9000F11F10822E960FB6F894DEBF0FBECDBF79
:103AA000DF91CF911F910F9108952F923F924F92E6
:103AB0005F926F927F928F929F92AF92BF92CF92BE
:103AC000DF92EF92FF920F931F93CF93DF93CDB7C7
:103AD000DEB72B970FB6F894DEBF0FBECDBF6C01DB
:103AE0007B018A01FC0117821682838181FFCCC190
:103AF000CE0101963C01F6019381F70193FD85917A
:103B000093FF81917F01882309F4BAC1853239F48A
:103B100093FD859193FF81917F01853229F4B60150
:103B200090E00E94751FE7CF912C212C312CFFE1F2
:103B3000F315D8F08B3279F038F4803279F0833293
:103B4000A1F4232D20611DC08D3261F0803369F412
:103B5000232D216016C0832D8260382EE32DE46072
:103B60003E2E2AC0F32DF8601DC037FC2DC020ED7D
:103B7000280F2A3040F08E32B9F436FC81C1232D53
:103B80002064322E19C036FE06C08AE0989E200DB1
:103B90001124922E11C0EAE02E9E200D1124222E17
:103BA000F32DF0623F2E08C08C3621F4832D8068FF
:103BB000382E02C0883641F4F70193FD859193FFBA
:103BC00081917F018111B3CF982F9F7D95549330C0
:103BD00028F40C5F1F4F9FE399830DC0833631F0AB
:103BE000833771F0833509F059C021C0F801808115
:103BF00089830E5F1F4F88248394912C530113C037
:103C00002801F2E04F0E511CF801A080B18036FE71
:103C100003C0692D70E002C06FEF7FEFC5010E9405
:103C20006A1F4C018201F32DFF773F2E16C0280139
:103C300022E0420E511CF801A080B18036FE03C084
:103C4000692D70E002C06FEF7FEFC5010E945F1F1A
:103C50004C01F32DF0683F2E820133FC1BC0822DF6
:103C600090E088169906B0F4B60180E290E00E94D8
:103C7000751F2A94F4CFF50137FC859137FE8191A9
:103C80005F01B60190E00E94751F21102A9421E087
:103C9000821A91088114910471F7E8C0843611F0FA
:103CA000893641F5F80137FE07C060817181828154
:103CB00093810C5F1F4F08C060817181072E000C3B
:103CC000880B990B0E5F1F4FF32DFF763F2E97FF4A
:103CD00009C090958095709561957F4F8F4F9F4F4C
:103CE000F0683F2E2AE030E0A3010E94B11F882E29
:103CF000861845C0853731F4232D2F7EB22E2AE059
:103D000030E025C0932D997FB92E8F36C1F018F47D
:103D1000883579F0B5C0803719F0883721F0B0C008
:103D2000E92FE061BE2EB4FE0DC0FB2DF460BF2E66
:103D300009C034FE0AC0292F2660B22E06C028E032
:103D400030E005C020E130E002C020E132E0F801BF
:103D5000B7FE07C060817181828193810C5F1F4F24
:103D600006C06081718180E090E00E5F1F4FA3016B
:103D70000E94B11F882E8618FB2DFF773F2E36FE3E
:103D80000DC0232D2E7FA22E891458F434FE0BC0B3
:103D900032FC09C0832D8E7EA82E05C0B82CA32C22
:103DA00003C0B82C01C0B92CA4FE0FC0FE01E80D61
:103DB000F11D8081803321F49A2D997EA92E09C0AE
:103DC000A2FE06C0B394B39404C08A2D867809F08D
:103DD000B394A3FC11C0A0FE06C0B21488F4280C52
:103DE000922C9B180EC0B21460F4B60180E290E0F1
:103DF0000E94751FB394F7CFB21418F42B1802C0A9
:103E0000982C212CA4FE10C0B60180E390E00E9403
:103E1000751FA2FE17C0A1FC03C088E790E002C096
:103E200088E590E0B6010CC08A2D867859F0A1FE95
:103E300002C08BE201C080E2A7FC8DE2B60190E0F7
:103E40000E94751F891438F4B60180E390E00E9447
:103E5000751F9A94F7CF8A94F301E80DF11D8081C4
:103E6000B60190E00E94751F8110F5CF222009F461
:103E700042CEB60180E290E00E94751F2A94F6CFF0
:103E8000F6018681978102C08FEF9FEF2B960FB6C8
:103E9000F894DEBF0FBECDBFDF91CF911F910F9180
:103EA000FF90EF90DF90CF90BF90AF909F908F905A
:103EB0007F906F905F904F903F902F900895FC01FE
:103EC0000590615070400110D8F7809590958E0F45
:103ED0009F1F0895FC016150704001900110D8F7B8
:103EE000809590958E0F9F1F08950F931F93CF93EA
:103EF000DF93FB01238121FD03C08FEF9FEF2CC0D7
:103F000022FF16C04681578124813581421753070D
:103F100044F4A081B1819D012F5F3F4F3183208305
:103F20008C93268137812F5F3F4F3783268314C0C0
:103F30008B01EC01FB010084F185E02D1995892BA3
:103F4000E1F6D80116968D919C91179701961796D8
:103F50009C938E931697CE01DF91CF911F910F9175
:103F60000895FA01AA27283051F1203181F1E8940F
:103F70006F936E7F6E5F7F4F8F4F9F4FAF4FB1E05C
:103F80003ED0B4E03CD0670F781F891F9A1FA11D57
:103F9000680F791F8A1F911DA11D6A0F711D811D58
:103FA000911DA11D20D009F468943F912AE0269F1D
:103FB00011243019305D3193DEF6CF010895462F7C
:103FC0004770405D4193B3E00FD0C9F7F6CF462F5D
:103FD0004F70405D4A3318F0495D31FD40524193C6
:103FE00002D0A9F7EACFB4E0A69597958795779583
:103FF0006795BA95C9F700976105710508959B010A
:10400000AC010A2E06945795479537952795BA9592
:10401000C9F7620F731F841F951FA01D0895F894A0
:02402000FFCFD0
:104022005225001900080001302E2C4100407B74FB
:104032006F66313A25642C746F66323A25642C74AB
:104042006F66333A25647D400A0025640A00406F9A
:104052006B61794000407374617274656440004022
:10406200247C25647C2825642C2564294000404852
:104072004120726561636865644000404842207275
:10408200656163686564400040484320726561630E
:104092006865642C205461736B206163636F6D707B
:0A40A2006C6973686564214000003A
:00000001FF
